:10000000A4EF03F0F76A140FF66E000EF722090052
:10001000F550120044696D004C756E004D61720020
:100020004D6572004A65750056656E0053616D003E
:10003000446F20796F752077616E7420746F20771C
:100040007269746520612073616D706C65206461F4
:1000500074652F74696D65206F660A0D000031327A
:100060002F32332F30362032333A35393A3530207B
:100070002853756E6461792920746F207468652037
:1000800050434638353833203F2028592F4E290A0F
:100090000D004E657720646174652F74696D65206D
:1000A0007772697474656E20746F205043463835DA
:1000B00038332E0A0D00576174636820697420720A
:1000C0006F6C6C6F76657220746F20323030372E13
:1000D0000A0D000052656164696E67206461746591
:1000E0002F74696D652066726F6D205043463835F8
:1000F00038333A0A0D00080E016E050E006E002E10
:10010000FED78A929392060E006E002EFED72236FC
:100110008A90D8B09380D8A09390938281A2FED782
:10012000012EEBD7050E006E002EFED78A92939219
:1001300000009380060E006E002EFED7060E006EA5
:10014000002EFED7938281A2FED7016A060E006EB2
:10015000002EFED781B001808A9293928A9093906C
:10016000000CF29CF29EF2BEFDD79380050E006E4D
:10017000002EFED79382060E006E002EFED78A90C8
:100180009390050E006E002EFED78A929392A20ED7
:10019000226EB1DF20C022F0AEDF21C022F0ABDF43
:1001A00093900000938281A2FED7050E006E002E70
:1001B000FED700D000009380050E006E002EFED703
:1001C000C00EF212000C206A216ACBDFB8EF03F0F8
:1001D0000900F5520DE0F6CF17F0F7CF18F0F55003
:1001E0009EA8FED7AD6E17C0F6FF18C0F7FFF0D778
:1001F000000C206A1F50090805E20A0E1F5E100E4F
:10020000202603D01F50202601D0F4D720C001F0B3
:10021000000C1750E96E18C0EAFFEFCF1EF01EC0A9
:100220001FF0E7DF01C019F0010E1724E96E000E80
:100230001820EA6EEFCF1EF01EC01FF0DADF01C0FB
:100240001AF0020E1724E96E000E1820EA6EEFCFA6
:100250001EF01EC01FF0CDDF01C01BF0030E1724DF
:10026000E96E000E1820EA6EEFCF1EF01EC01FF0E0
:10027000C0DF050E1724E96E000E1820EA6EEF3875
:10028000006E00360036C00E0016005001101C6EC5
:10029000040E1724E96E000E1820EA6EEFCF1EF050
:1002A0001EC01FF0A6DF060E1724E96E000E1820F0
:1002B000EA6EEF38006E0036E00E001600500110B6
:1002C0001D6E206A800E216E4CDFF29CF29EF2BE03
:1002D000FDD79380050E006E002EFED79382060E8A
:1002E000006E002EFED78A909390050E006E002EB1
:1002F000FED78A929392A20E226EFDDE010E226E2E
:10030000FADE226AF8DE19C022F0F5DE1AC022F009
:10031000F2DE1BC022F0EFDE1CC022F0ECDE1DC0BE
:1003200022F0E9DE93900000938281A2FED7050EB1
:10033000006E002EFED700D000009380050E006EE8
:10034000002EFED7C00EF212050E1724E96E000E25
:100350001820EA6EEFCF1EF0100E206E1EC021F0A6
:1003600000DF206A216AFDDEE5EF03F0EA6A180E7D
:10037000E96EEF500DE0060E016E006A002EFED70A
:10038000012EFBD77B0E006E002EFED7EF2EF3D78B
:100390000FEF04F0080E236E00C024F09380060EC9
:1003A000006E002EFED7938281A2FED781B0D88046
:1003B00081A0D8900136050E006E002EFED79392D4
:1003C0008A92232EEBD79380060E006E002EFED766
:1003D0008A902450D8A493900000938281A2FED7E3
:1003E000050E006E002EFED78A929392060E006EC6
:1003F000002EFED78A909390000C23C024F0D89052
:100400002432780E24162430006E00323F0E00167F
:1004100000502424256E23500F0B2524016E000C60
:10042000F29CF29EF2BEFDD79380050E006E002E68
:10043000FED79382060E006E002EFED78A90939010
:10044000050E006E002EFED78A929392A20E226EA7
:1004500052DE20C022F04FDE9380050E006E002E8B
:10046000FED79382060E006E002EFED781A2FED725
:100470008A909390050E006E002EFED78A9293927A
:10048000A30E226E38DE006A85DF01C021F0939052
:100490000000938281A2FED7050E006E002EFED7CB
:1004A00000D000009380050E006E002EFED7C00E17
:1004B000F21221C001F02FEF03F0F29CF29EF2BE87
:1004C000FDD79380050E006E002EFED79382060E98
:1004D000006E002EFED78A909390050E006E002EBF
:1004E000FED78A929392A20E226E05DE020E226E33
:1004F00002DE9380050E006E002EFED79382060E5C
:10050000006E002EFED781A2FED78A909390050E32
:10051000006E002EFED78A929392A30E226EEBDD20
:10052000010E006E37DF01C01BF0010E006E32DFDE
:1005300001C01CF0010E006E2DDF01C01DF0010E88
:10054000006E28DF01C01EF0006A24DF01C01FF02A
:1005500093900000938281A2FED7050E006E002EBC
:10056000FED700D000009380050E006E002EFED74F
:10057000C00EF21217C001F018C003F017C020F02F
:1005800018C021F01BC023F038DF21C0EAFF20C0D3
:10059000E9FF01C0EFFF010E1724016E000E1820C5
:1005A000036E01C020F0216E1CC023F026DF21C0A5
:1005B000EAFF20C0E9FF01C0EFFF020E1724016E21
:1005C000000E1820036E01C020F0216E1D503F0B5D
:1005D000226E236E12DF21C0EAFF20C0E9FF01C0B6
:1005E000EFFF030E1724016E000E1820036E01C0EA
:1005F00020F0216E1E503F0B226E236EFEDE21C0C6
:10060000EAFF20C0E9FF01C0EFFF040E1724016ECE
:10061000000E1820036E01C020F0216E1F501F0B2A
:10062000226E236EEADE21C0EAFF20C0E9FF01C08E
:10063000EFFF060E1724E96E000E1820EA6E1F3831
:10064000006E0032070E001600C0EFFF1E38196E54
:1006500019321932030E1916100E206EE1D601C0A0
:100660001AF01A50030B195C02E01A2AFAD7050E89
:100670001724E96E000E1820EA6E1AC0EFFF100E64
:10068000206E1AC021F06DDD15EF04F0EF5210E07E
:10069000EACF18F0E9CF17F0EF509EA8FED7AD6E65
:1006A00018C0EAFF17C0E9FFE92AD8B4EA2AEED752
:1006B0002FEF04F01A50016A195C03E219C000F030
:1006C0000CD0006A080E1B6E193600361A50005CFA
:1006D000D8B0006E01361B2EF7D7000C015017C0A2
:1006E00019F0640E1A6EE6DF00C017F00150300EEC
:1006F00007E118A20DD018B60BD018B8200E03D001
:10070000189618981880012601509EA8FED7AD6E45
:1007100017C019F00A0E1A6ECDDF00C017F0015095
:10072000300E06E118B609D018A007D018B8200E70
:10073000012601509EA8FED7AD6E300E1726175029
:100740009EA8FED7AD6E000CF86AD09EEA6AE96AF0
:10075000B886080EAF6E020EB06EA60EAC6E900E8E
:10076000AB6EC150C00B0F09C16E070EB46E2BD516
:10077000300EF66E000EF76E2BDD5E0EF66E000E7E
:10078000F76E26DD9EAAFED7AECF05F005506008B5
:1007900006E205507A0803E30550DF0B01D005504F
:1007A000056E0550590824E10C0E146E1F0E136ED1
:1007B000060E156E170E126E3B0E116E320E106E77
:1007C000166A186A100E176E24D50A0E9EA8FED758
:1007D000AD6E0D0E9EA8FED7AD6E920EF66E000E9B
:1007E000F76EF6DCB60EF66E000EF76EF1DC05D095
:1007F00005504E0801E101D0C5D70A0E9EA8FED7CC
:10080000AD6E0D0E9EA8FED7AD6ED40EF66E000E28
:10081000F76EDEDC040E176EFA0E186EA7D5172ED3
:10082000FBD7186A100E176E48D61650040DF350F9
:10083000036A176EEA6A060EE96EF2CF18F0F29EAE
:10084000175002EC00F00A000900F550EE6E0009A6
:10085000FBE118BEF28EEA6A060EE96E17D72C0E7F
:100860009EA8FED7AD6E200E9EA8FED7AD6E14C01A
:1008700017F01B0E186E32DF2F0E9EA8FED7AD6E3E
:1008800013C017F01B0E186E29DF2F0E9EA8FED77F
:10089000AD6E15C017F0010E186E20DF2C0E9EA84D
:1008A000FED7AD6E200E9EA8FED7AD6E12C017F01B
:1008B0001B0E186E13DF3A0E9EA8FED7AD6E11C048
:1008C00017F0010E186E0ADF3A0E9EA8FED7AD6E25
:1008D00010C017F0010E186E01DF0A0E9EA8FED799
:0E08E000AD6E0D0E9EA8FED7AD6E94D7030030
:020000040030CA
:0E0000003FCC3F0E0087A5000FC00FE00F4061
:00000001FF
;PIC18F4550
;CRC=4038  CREATED="21-mars-12 02:34"
