:020000040000FA
:040000005AEF00F0C3
:08000800056ED8CF06F0E0CF31
:1000100007F00001E9CF0DF0EACF08F0E1CF09F0D9
:10002000E2CF0AF0D9CF0BF0DACF0CF0F3CF14F017
:10003000F4CF15F0FACF16F000C00FF001C010F0A9
:1000400002C011F003C012F004C013F09DA22CEF07
:1000500000F09EB24FEF00F00FC000F010C001F0B2
:1000600011C002F012C003F013C004F00E8E0DC0D8
:10007000E9FF08C0EAFF09C0E1FF0AC0E2FF0BC0C8
:10008000D9FF0CC0DAFF14C0F3FF15C0F4FF16C08F
:10009000FAFF055007C0E0FF06C0D8FF1000010EB0
:1000A000181A185202E18A9001D08A8093909E9289
:1000B0002CEF00F0F86AD09E0D8EEA6AE96AB886E5
:1000C000080EAF6E020EB06EA60EAC6E900EAB6E4A
:1000D000C150C00B0F09C16E070EB46E010E186E31
:1000E000C150C00B0F09C16EC2909698C69A949EDB
:1000F00093809392010EC66E000EC76ED190800E53
:10010000D56ECD6A480E0409CA6EF90ECB6E070E85
:10011000B46E9250100E006E002EFED70000B45048
:0E012000A19CB56A9D82C00EF212FFD70300AB
:020000040030CA
:0E0000003FCC3F0E0087A5000FC00FE00F4061
:00000001FF
;PIC18F4550
