:1000000005EF02F0566F6C746D6574726520432EB7
:10001000430028707265636973696F6E20382062CF
:1000200069747329000025342E336620566F6C7472
:100030007300EA6A0B0EE96EEF500DE0060E016EDA
:10004000006A002EFED7012EFBD77B0E006E002E1D
:10005000FED7EF2EF3D730EF02F08E0E006E0BC0FE
:1000600001F00AC002F0036A015209E102C001F086
:10007000026A080E005E015202E1006A08D0D890C0
:1000800001BE04D0023601360006F9D7019E41EFC9
:1000900002F01750D8B471D0006E1B50D8B46DD098
:1000A000002604E3810E002668E204D07F0E005E85
:1000B00064E363E018C01FF01C501F1A188E1C8EDA
:1000C0001A501E02F4CF21F019501D02F4CF03F094
:1000D000F3CF20F01E02F3502126F4502022000E10
:1000E00003221A501D02F3502126F4502022000E44
:1000F000026A0322022218501E02F3502026F450F6
:100100000322000E022218501D02F3500326F45061
:100110000222000E016A01221A501C02F35020260E
:10012000F4500322000E0222012219501C02F35047
:100130000326F4500222000E012218501C02F35034
:100140000226F4500122002A01BE05D020360336D3
:10015000023601360006000E20AE0AD0032A022223
:100160000122015005E1025003E1035001E1002AA0
:100170001FBE018E1FAE019E04D0006A016A026A92
:10018000036A000C0900F5520DE0F6CF0AF0F7CF34
:100190000BF0F5509EA8FED7AD6E0AC0F6FF0BC05F
:1001A000F7FFF0D7000C1750B608176E036A18C097
:1001B0001BF0188ED890183219321A3203320232DC
:1001C00001320032172EF6D71BAE0BD0001E011ED7
:1001D000021E031E002AD8B4012AD8B4022AD8B4B9
:1001E000032A57EF01F0006A016A026A036A1F6A74
:1001F000206A216A226A1E501D101C101B102CE060
:10020000200E236ED8901736183619361A361F3638
:100210002036213622361E50225C08E11D50215C1A
:1002200005E11C50205C02E11B501F5C0FE31B50DA
:100230001F5E1C50D8A01C3C205E1D50D8A01D3C49
:10024000215E1E50D8A01E3C225ED88000360136AA
:1002500002360336232ED6D7EA6A1F0EE96E000C4B
:10026000E9500F6E0E50116E19E00DC01AF00CC05F
:1002700019F00BC018F00AC017F01E6A1D6A200E94
:100280001C6E820E1B6E05DF03C00DF002C00CF069
:1002900001C00BF000C00AF0112EE7D70DC01AF014
:1002A0000CC019F00BC018F00AC017F07CD703C0BF
:1002B0000DF002C00CF001C00BF000C00AF00DAE52
:1002C0000DD00F060F8A0A1E0B1E0C1E0D1E0A2AC9
:1002D000D8B40B2AD8B40C2AD8B40D2A3B0E166E0B
:1002E0009A0E156ECA0E146E136A0A0E116E0E5017
:1002F000D8B40F2A0DC01AF00CC019F00BC018F0BA
:100300000AC017F016C01EF015C01DF014C01CF076
:1003100013C01BF068DF0150EFCF0AF0ECCF0BF0F9
:10032000ECCF0CF0ECCF0DF000520FE10E28115C79
:100330000CE00F500CE00F0B115C01E03BE20FBE34
:1003400039D00FBC04D0200E30D0200E0F160FAACB
:100350000DD00F9A0E50D8A40F0600500F6E2D0E20
:100360009EA8FED7AD6E0F50006E0F6A0E50115C46
:100370000BE100500F6E2E0E9EA8FED7AD6E0F50F3
:10038000006E200E0F16000E300E0FAA0ED00F9A20
:100390000E50D8A40F0600500F6E2D0E9EA8FED74B
:1003A000AD6E0F50006E0F6A300E002600509EA8F2
:1003B000FED7AD6E16C01AF015C019F014C018F0B3
:1003C00013C017F01E6A1D6A1C6A0A0E1B6E0BDF33
:1003D00003C016F002C015F001C014F000C013F005
:1003E000112E88D786EF02F00900F6CF0BF0F7CF79
:1003F0000CF0F5509EA8FED7AD6E0BC0F6FF0CC0FA
:10040000F7FF0A2EF1D78DEF02F0F86AD09EEA6A64
:10041000E96AB886080EAF6E020EB06EA60EAC6E1C
:10042000900EAB6EC150C00B0F09C16E070EB46EBB
:10043000C150C00B0E09C16EC080C082C084C09E76
:10044000C280800E946EFE0E9EA8FED7AD6E010E89
:100450009EA8FED7AD6E020E0A6EC80E0B6EE9D5D1
:100460000A2EFBD70C0E9EA8FED7AD6EC282C2B27A
:10047000FED7C450056A046E05C00BF004C00AF034
:10048000ECD503C01AF002C019F001C018F000C08A
:1004900017F01E6A1D6A200E1C6E790E1B6EF9DDA8
:1004A00003C009F002C008F001C007F000C006F068
:1004B000FE0E9EA8FED7AD6E840E9EA8FED7AD6E32
:1004C000040EF66E000EF76E5DDEFE0E9EA8FED7E1
:1004D000AD6EC00E9EA8FED7AD6E120EF66E000E6B
:1004E000F76E50DEFE0E9EA8FED7AD6ED80E9EA80B
:1004F000FED7AD6E030EE96E09C00DF008C00CF01A
:1005000007C00BF006C00AF00E6EAAD62B0EF66ED0
:0E051000000EF76E060E0A6E67D79DD7030029
:020000040030CA
:0E0000003FCC3F0E0087A5000FC00FE00F4061
:00000001FF
;PIC18F4550
;CRC=73B5  CREATED="23-mars-12 02:27"
