:10000000E3EF00F0546F7563686520706573656594
:10001000203A25750000FE0E9EA8FED7AD6E010E9B
:100020009EA8FED7AD6EF9EF00F093988A8893965C
:100030008A9693968A86010E0A6E0A50080811E382
:10004000938A81BA02D0D89001D0D88009C0EAFF43
:1000500008C0E9FFEF3693988A9893988A880A2A0D
:10006000ECD793968A96FDEF00F0082C02D00A6A2E
:1000700011D00850020803E1400E0A6E0BD0085060
:10008000030803E1140E0A6E05D00850040802E1CB
:10009000540E0A6E0950130803E309500A2601D0D2
:1000A0000A6A800E0A240B6EFE0E9EA8FED7AD6E65
:1000B0000B509EA8FED7AD6E2DEF01F00900F6CFD4
:1000C00009F0F7CF0AF0F5509EA8FED7AD6E09C033
:1000D000F6FF0AC0F7FF082EF1D734EF01F00B50FE
:1000E000016A0A5C03E20AC000F00CD0006A080E44
:1000F0000C6E0A3600360B50005CD8B0006E01362C
:100100000C2EF7D7000C015008C00AF0640E0B6EDD
:10011000E6DF00C008F00150300E07E109A20DD063
:1001200009B60BD009B8200E03D0099609980980AA
:10013000012601509EA8FED7AD6E08C00AF00A0E37
:100140000B6ECDDF00C008F00150300E06E109B69D
:1001500009D009A007D009B8200E012601509EA899
:10016000FED7AD6E300E082608509EA8FED7AD6EA5
:1001700039EF01F093928A9293908A90010E0A6E61
:100180000A5008081AE309C003F008C0E9FF09C0D3
:10019000EAFFEF50800B03E193948A9402D093948A
:1001A0008A8409C0EAFF08C0E9FFD890EF3693922D
:1001B0008A8293928A920A2AE3D793908A809390B4
:1001C0008A903DEF01F0F86AD09EEA6AE96AB88643
:1001D000080EAF6E020EB06EA60EAC6E900EAB6E39
:1001E000C150C00B0F09C16E070EB46E046A056AD8
:1001F00012D7096A060E086E18D70650FE0A0FE0DD
:10020000030A10E0060A11E00C0A12E0180A13E0D3
:10021000300A14E0600A15E0C00A16E018D0010E9A
:10022000076E16D0020E076E13D0030E076E10D0A5
:10023000040E076E0DD0050E076E0AD0060E076E6F
:1002400007D0070E076E04D0080E076E01D0076AAC
:10025000010E086E020E096E08D7040EF66E000E2F
:10026000F76E0E0E086E2AD707C008F01B0E096E37
:0E0270004AD7096A060E086E7DD7BBD7030079
:020000040030CA
:0E0000003FCC3F0E0087A1000FC00FE00F4065
:00000001FF
;PIC18F4550
;CRC=FACD  CREATED="13-mars-12 23:01"
