:040000004EEF01F0CE
:08000800046ED8CF05F0E0CF33
:1000100006F00001E9CF0CF0EACF07F0E1CF08F0DD
:10002000E2CF09F0D9CF0AF0DACF0BF0F3CF12F01C
:10003000F4CF13F0FACF14F000C00EF001C00FF0AF
:1000400002C010F003C011F0F0A82AEF00F0F0B2E7
:10005000BDEF00F00EC000F00FC001F010C002F0C4
:1000600011C003F00CC0E9FF07C0EAFF078E08C00B
:10007000E1FF09C0E2FF0AC0D9FF0BC0DAFF12C0DE
:10008000F3FF13C0F4FF14C0FAFF045006C0E0FFF2
:1000900005C0D8FF1000F76AA60FF66E000EF72213
:1000A0000900F550120031343761323538303336BB
:1000B00039622A2F2D2B2A6A166A1650040846E345
:1000C0001650FC0F13E2040FACEF00F0EF0E956E2C
:1000D000836E0CD0DF0E956E836E08D0BF0E956ECA
:1000E000836E04D07F0E956E836E00D083500F0B0D
:1000F0000F082AE08350010B02E12B6A11D08350D4
:10010000020B03E1010E2B6E0BD08350040B03E1B5
:10011000020E2B6E05D08350080B02E1030E2B6EEE
:100120002B50040DF3502D6A2C6E010E165C036AE1
:100130002C24016E2D5003220150F2CF2CF0F29EA0
:10014000AADF2CBEF28E2A6E162AB7D7FF0E956E46
:100150002AC001F0BEEF00F0E824F76AF736730F0B
:10016000F66E010EF7220A00F550FA6E0800F550FF
:10017000F96ECC00D400DC00E4009DD701C01BF078
:10018000F0922AEF00F0456E7472657A20766F74F3
:10019000726520636F646500566F74726520636FCB
:1001A0006465206573740000696E636F72726563C5
:1001B00074210000566575696C6C657A20726565FE
:1001C0007373617965720000456E7472657A20768A
:1001D0006F74726520636F646500566F747265207A
:1001E000636F6465206573740000636F727265638A
:1001F00074210000456E7472657A20766F747265A2
:1002000020636F6465000900F5520DE0F6CF24F01D
:10021000F7CF25F0F5509EA8FED7AD6E24C0F6FFAF
:1002200025C0F7FFF0D7000C256A2550030818E316
:10023000036A2550170FE96E000E0320EA6E245062
:100240002524286EF2CF29F0F29E28C0A9FFA69C93
:10025000A69EA680A85029BEF28EEF6E252AE5D76D
:10026000036A2550170FE96E000E0320EA6EEFCFE8
:1002700001F095EF01F0EA6A250EE96EEF500DE00E
:10028000060E016E006A002EFED7012EFBD77B0EF4
:10029000006E002EFED7EF2EF3D7000CF86AD09E2A
:1002A000078EEA6AE96AB886080EAF6E020EB06E73
:1002B000A60EAC6E900EAB6EC150C00B0F09C16E96
:1002C000070EB46E166A176A186A196A1A6A1C90C1
:1002D0001D6A1E6A1F6A206A216A226AF088C00E9F
:1002E000F212F198FE0E9EA8FED7AD6E010E9EA8EA
:1002F000FED7AD6EFE0E9EA8FED7AD6E810E9EA8F7
:10030000FED7AD6E860EF66E010EF76E7CDFC70E61
:10031000236E0F0E956E95988C98959A8C9A959C55
:100320008C9C959E8C9E246A7FD71B5232E0FE0ED9
:100330009EA8FED7AD6E23509EA8FED7AD6E1B5073
:100340009EA8FED7AD6E020E246E960E256E93DF2C
:10035000242EFBD7FE0E9EA8FED7AD6E23509EA87E
:10036000FED7AD6E2A0E9EA8FED7AD6EC80E256EC6
:1003700082DF232A1D5003080AE3036A1D501E0F63
:10038000E96E000E0320EA6E1BC0EFFF1D2A1B6AF8
:10039000C1D01D500408D8A4BDD01C80226A2250B0
:1003A0000308D8A074D0036A22501E0FE96E000E15
:1003B0000320EA6EEFCF24F0036A2250170FE96E94
:1003C000000E0320EA6EEF50245C56E01C90FE0EF7
:1003D0009EA8FED7AD6E010E9EA8FED7AD6EFE0E96
:1003E0009EA8FED7AD6E970E9EA8FED7AD6E980E56
:1003F000F66E010EF76E07DFFE0E9EA8FED7AD6EFD
:10040000D90E9EA8FED7AD6EA80EF66E010EF76E41
:10041000FADE020E246EFA0E256E2DDF242EFBD797
:10042000FE0E9EA8FED7AD6E010E9EA8FED7AD6E45
:10043000FE0E9EA8FED7AD6ED50E9EA8FED7AD6E61
:10044000B40EF66E010EF76EDEDEFE0E9EA8FED72F
:10045000AD6E010E9EA8FED7AD6EFE0E9EA8FED715
:10046000AD6E810E9EA8FED7AD6EC80EF66E010E63
:10047000F76EC9DEC70E236E036A22501E0FE96EA7
:10048000000E0320EA6E300EEF6E222A88D71D6A16
:100490001CA040D0FE0E9EA8FED7AD6E010E9EA8F9
:1004A000FED7AD6EFE0E9EA8FED7AD6E970E9EA82F
:1004B000FED7AD6EDA0EF66E010EF76EA4DEFE0EFE
:1004C0009EA8FED7AD6EDB0E9EA8FED7AD6EEA0EDF
:1004D000F66E010EF76E97DE040E246EFA0E256E90
:1004E000CADE242EFBD7FE0E9EA8FED7AD6E010EEF
:1004F0009EA8FED7AD6EFE0E9EA8FED7AD6E810EF5
:100500009EA8FED7AD6EF40EF66E010EF76E7BDE82
:08051000C70E236EFED60300A6
:0200000400F00A
:04000000393837361E
:020000040030CA
:0E0000003FCC3F0E0087A5000FC00FE00F4061
:00000001FF
;PIC18F4550
;CRC=C8D4  CREATED="24-mars-12 21:08"
