:020000040000FA
:1000000095EF00F0F76A140FF66E000EF722090064
:10001000F550120073656C5F636F7572616E746585
:10002000203D2025750D0A00F76A380FF66E000E88
:10003000F7220900F550120073656C656374696FEF
:100040006E203D2025750D0A0000F76A5A0FF66EE6
:10005000000EF7220900F55012007261705F63799B
:10006000636C69717565203D2025750D0A000C5083
:10007000016A0B5C03E20BC000F00CD0006A080EB2
:100080000D6E0B3600360C50005CD8B0006E013699
:100090000D2EF7D7000C015009C00BF0640E0C6E4A
:1000A000E6DF00C009F00150300E07E10AA20DD0D2
:1000B0000AB60BD00AB8200E03D00A960A980A8016
:1000C000012601509EA8FED7AD6E09C00BF00A0EA6
:1000D0000C6ECDDF00C009F00150300E06E10AB60B
:1000E00009D00AA007D00AB8200E012601509EA808
:1000F000FED7AD6E300E092609509EA8FED7AD6E14
:10010000000CEA6A080EE96EEF500DE0060E016E73
:10011000006A002EFED7012EFBD77B0E006E002E4C
:10012000FED7EF2EF3D74AEF01F0F86AD09EEA6AC5
:10013000E96AB886080EAF6E020EB06EA60EAC6EFF
:10014000900EAB6EC150C00B0F09C16E070EB46E9E
:10015000C150C00B0F09C16EC2909698C69A949E6A
:1001600093809392010EC66E000EC76ED190800EE2
:10017000D56ECD6A780E0609CA6EC80ECB6E070E14
:10018000B46E9250100E006E002EFED70000B450D8
:10019000A19CB56AF19E94948B940C0EBD6EB76AC7
:1001A000FF0E936E8150070B076EFF0E936E81500A
:1001B000FF0A070B075CF9E0FF0E936E8150FF0A00
:1001C000070B066E0650010A05E0030A06E0060A60
:1001D00007E009D0780E056E07D0960E056E04D0A4
:1001E000C30E056E01D0056AFE0E9EA8FED7AD6E49
:1001F000010E9EA8FED7AD6E086A085003DF082ADC
:10020000006E00509EA8FED7AD6E0F0E085CF5E1A3
:1002100007C009F01B0E0A6E3EDF0D0E9EA8FED72A
:10022000AD6E0A0E9EA8FED7AD6E086A0850FCDEC1
:10023000082A006E00509EA8FED7AD6E0C0E085C1A
:10024000F5E106C009F01B0E0A6E25DF0D0E9EA813
:10025000FED7AD6E0A0E9EA8FED7AD6E086A085096
:10026000F4DE082A006E00509EA8FED7AD6E0F0E79
:10027000085CF5E105C009F01B0E0A6E0CDF0D0EDF
:100280009EA8FED7AD6E0A0E9EA8FED7AD6E640E78
:0E029000086E37D7BF6A05C0BEFF87D70300D0
:020000040030CA
:0E0000003FCC3F0E0087A5000FC00FE00F4061
:00000001FF
;PIC18F4550
