:1000000035EF02F041206C276164726573736520DF
:1000100025334C64206C610076616C6575722061DB
:1000200020313020646520706C75730A0D206327C1
:100030006573742061206469726520253375000042
:100040009382938049EF02F0080E016E050E006E58
:10005000002EFED78A929392060E006E002EFED7D7
:100060000D368A90D8B09380D8A09390938281A2C5
:10007000FED7012EEBD7050E006E002EFED78A921A
:10008000939200009380060E006E002EFED7060E9F
:10009000006E002EFED7938281A2FED7016A060E63
:1000A000006E002EFED781B001808A9293928A90D2
:1000B0009390000C9380050E006E002EFED7938265
:1000C000060E006E002EFED78A909390050E006EED
:1000D000002EFED78A929392A80E0D6EB5DF0150C6
:1000E0000C9001B00C8093900000938281A2FED707
:1000F000050E006E002EFED700D000009380050E86
:10010000006E002EFED7000E0CA0010E016E000C3A
:10011000D1DF0152FDE09380050E006E002EFED768
:100120009382060E006E002EFED78A909390050EE5
:10013000006E002EFED78A929392A80E0D6E84DF79
:100140000D6A090E0C6E010E0C24016E000E0D20BE
:10015000036E01C0E9FFEA6EEFCF0CF00CC00DF0AA
:1001600073DF09C00DF070DF0BC00DF06DDF9390F1
:100170000000938281A2FED7050E006E002EFED7EE
:1001800000D000009380050E006E002EFED760EFB9
:1001900002F0080E0D6E00C00EF09380060E006E89
:1001A000002EFED7938281A2FED781B0D88081A095
:1001B000D8900136050E006E002EFED793928A92DB
:1001C0000D2EEBD79380060E006E002EFED78A9080
:1001D0000E50D8A493900000938281A2FED7050E02
:1001E000006E002EFED78A929392060E006E002EAD
:1001F000FED78A90939042EF01F05CDF0152FDE060
:100200009380050E006E002EFED79382060E006EC0
:10021000002EFED78A909390050E006E002EFED71A
:100220008A929392A80E0D6E0FDF0D6A090E0C6E66
:10023000010E0C24016E000E0D20036E01C0E9FFBB
:10024000EA6EEFCF0CF00CC00DF0FEDE09C00DF031
:10025000FBDE9380050E006E002EFED79382060E05
:10026000006E002EFED781A2FED78A909390050ED5
:10027000006E002EFED78A929392A90E0D6EE4DED8
:10028000006A87D701C00BF093900000938281A28F
:10029000FED7050E006E002EFED700D00000938022
:1002A000050E006E002EFED70BC001F073EF02F0BA
:1002B0000900F6CF0AF0F7CF0BF0F5509EA8FED755
:1002C000AD6E0AC0F6FF0BC0F7FF092EF1D7000C88
:1002D000EACF11F0E9CF10F00AAE08D0108E10A8C6
:1002E000102A091E0A1E092AD8B40A2A0A38F00957
:1002F0000C6E0C26E20F0D6E320F0F6E0A500F0BB4
:100300000D260D260F26E90F0E6E0E260E26093835
:100310000F0B0E260F260E360F360F1E0F36095006
:100320000F0B0F260C36070E0B6E0A0E0E060F264D
:10033000FDE30D060E26FDE30C060D26FDE30B0680
:100340000C26FDE3EA6A0B0EE96E070E1014109CF2
:10035000E906101407E110B8E92A10B803D0200EFE
:10036000006E1CD0E9260F0EE95CD8B4108CEF505B
:10037000006E08E110BC06D010B814D010B602D040
:10038000200E0BD010AE06D02D0E006EED50109C3E
:10039000109E04D010861098300E002600509EA8A3
:1003A000FED7AD6EEE5010ACDED78BEF02F00C50E6
:1003B000016A0B5C03E20BC000F00CD0006A080E6F
:1003C0000D6E0B3600360C50005CD8B0006E013656
:1003D0000D2EF7D7000C015009C00BF0640E0C6E07
:1003E000E6DF00C009F00150300E07E10AA20DD08F
:1003F0000AB60BD00AB8200E03D00A960A980A80D3
:10040000012601509EA8FED7AD6E09C00BF00A0E62
:100410000C6ECDDF00C009F00150300E06E10AB6C7
:1004200009D00AA007D00AB8200E012601509EA8C4
:10043000FED7AD6E300E092609509EA8FED7AD6ED0
:10044000ABEF02F0EA6A0A0EE96EEF500DE0060E1D
:10045000016E006A002EFED7012EFBD77B0E006EC8
:10046000002EFED7EF2EF3D7000CF86AD09EEA6A72
:10047000E96AB886080EAF6E020EB06EA60EAC6EBC
:10048000900EAB6EC150C00B0F09C16E070EB46E5B
:10049000D7D5086A076A08BE05D0085215E107508B
:1004A000FE0812E30A0E0724016E000E082001C0A8
:1004B00005F008C00AF007C009F005C00BF028D607
:1004C000072AD8B4082AE7D7086AFE0E076E08BEC6
:1004D0004AD000D00C0E9EA8FED7AD6E08C00AF020
:1004E00007C009F08AD601C006F0FE0E9EA8FED70E
:1004F000AD6EC00E9EA8FED7AD6E040EF66E000E59
:10050000F76E0C0E096ED4DE030EE96E08C00AF019
:1005100007C009F0DDD6200E9EA8FED7AD6E6C0E8A
:100520009EA8FED7AD6E610E9EA8FED7AD6EFE0EE4
:100530009EA8FED7AD6E940E9EA8FED7AD6E180E87
:10054000F66E000EF76E230E096EB2DE06C009F0DD
:10055000130E0A6E40D7FA0E0A6E74DF0750D8B435
:1005600008060706B4D7040E096EFA0E0A6E6ADF93
:08057000092EFBD7A9D70300F7
:020000040030CA
:0E0000003FCC3F0E0087A5000FC00FE00F4061
:00000001FF
;PIC18F4550
;CRC=AB57  CREATED="23-mars-12 01:39"
