:020000040000FA
:10000000B3EF00F0F76A140FF66E000EF722090046
:10001000F5501200313437613235383033363962B9
:100020002A2F2D2BF76A340FF66E000EF7220900E7
:10003000F55012006170707579657200F76A4C0FA7
:10004000F66E000EF7220900F5501200746F75630A
:10005000686520706573656500000A6A052A0550A9
:10006000320856E20850FC0F13E2040F8EEF00F046
:10007000EF0E936E816E0CD0DF0E936E816E08D002
:10008000BF0E936E816E04D07F0E936E816E00D092
:1000900006A009D081500F0B0F0804E1069007C09D
:1000A0000AF0076A34D081500F0B0F082BE0815003
:1000B000010B02E10B6A11D08150020B03E1010E2A
:1000C0000B6E0BD08150040B03E1020E0B6E05D0BA
:1000D0008150080B02E1030E0B6E0B50040DF35020
:1000E0000D6A0C6E036A08500C24016E0D50032239
:1000F0000150F2CF0EF0F29E85DF0EBEF28E076E3B
:10010000068005D0082A0850040801E1086A056A3B
:10011000FF0E936E0AC001F006EF01F0E824F76AC3
:10012000F736370FF66E010EF7220A00F550FA6E19
:100130000800F550F96E7000780080008800EA6AC7
:100140000B0EE96EEF500DE0060E016E006A002EF8
:10015000FED7012EFBD77B0E006E002EFED7EF2EB2
:10016000F3D72FEF01F0F86AD09EEA6AE96AB88601
:10017000080EAF6E020EB06EA60EAC6E900EAB6E99
:10018000C150C00B0F09C16E070EB46E056A069010
:10019000076A086AC150C00B0F09C16EC2909698D9
:1001A000C69A949E93809392010EC66E000EC76EFF
:1001B000D190800ED56ECD6A000ECA6E000ECB6E49
:1001C000070EB46E9250100E006E002EFED7000087
:1001D000B450A19CB56AFE0E9EA8FED7AD6E010E6E
:1001E0009EA8FED7AD6EFE0E9EA8FED7AD6E850E04
:1001F0009EA8FED7AD6E0A6A0A5014DF000905E01A
:100200000A2A9EA8FED7AD6EF7D727D701C009F0FE
:10021000095241E0FE0E9EA8FED7AD6E840E9EA848
:10022000FED7AD6E0A6A0A5009DF0A2A006E005036
:100230009EA8FED7AD6E0C0E0A5CF5E1FE0E9EA8E0
:10024000FED7AD6ECA0E9EA8FED7AD6E09509EA811
:10025000FED7AD6E0C0E0A6EFA0E0B6E70D70A2E1C
:10026000FBD7FE0E9EA8FED7AD6E010E9EA8FED750
:10027000AD6EFE0E9EA8FED7AD6E850E9EA8FED773
:10028000AD6E0A6A0A50CEDE000905E00A2A9EA871
:0A029000FED7AD6EF7D7B9D7030013
:020000040030CA
:0E0000003FCC3F0E0087A5000FC00FE00F4061
:00000001FF
;PIC18F4550
