:020000040000FA
:040000001BEF02F000
:08000800056ED8CF06F0E0CF31
:1000100007F00001E9CF0DF0EACF08F0E1CF09F0D9
:10002000E2CF0AF0D9CF0BF0DACF0CF0F3CF14F017
:10003000F4CF15F0FACF16F000C00FF001C010F0A9
:1000400002C011F003C012F004C013F0F0A82CEFAE
:1000500000F0F0B201EF02F00FC000F010C001F0AC
:1000600011C002F012C003F013C004F00E8E0DC0D8
:10007000E9FF08C0EAFF09C0E1FF0AC0E2FF0BC0C8
:10008000D9FF0CC0DAFF14C0F3FF15C0F4FF16C08F
:10009000FAFF055007C0E0FF06C0D8FF1000F76A5E
:1000A000AE0FF66E000EF7220900F5501200313443
:1000B000376132353830333639622A2F2D2BF76AC3
:1000C000CE0FF66E000EF7220900F5501200726195
:1000D0006E676572203D202531640000F76AEC0FE1
:1000E000F66E000EF7220900F5501200436F6C6F98
:1000F0006E65203D20257500F2CF0EF0F29EF76A66
:10010000120FF66E010EF7220900F5500EBEF28EA8
:1001100012006170707579657200F2CF0EF0F29E78
:10012000F76A340FF66E010EF7220900F5500EBE85
:10013000F28E1200746F7563686520706573656573
:100140000000F2CF0EF0F29EF76A5C0FF66E010E21
:10015000F7220900F5500EBEF28E120020206170C9
:10016000707579657220202020002650016A255C78
:1001700003E225C000F00CD0006A080E276E253679
:1001800000362650005CD8B0006E0136272EF7D717
:10019000000C200E20A8300E216E1FC000F01FAEF4
:1001A00007D0001E002A00C01FF02D0E216E208EE9
:1001B00001501FC025F0640E266ED7DF00C01FF06F
:1001C000300E0124226E1FC025F00A0E266ECDDFF0
:1001D000300E0024246E300E0124236E21C000F066
:1001E00020A602D020AE209420B80BD020AE22D082
:1001F00020B420D000C022F020B21CD000C023F0D8
:1002000019D0300E225C16E100C022F0200E216EC3
:1002100020A604D02094208220AE2092300E235CB1
:1002200009E100C023F0200E226E20A6F7D720920D
:1002300020AE209020A404D021509EA8FED7AD6E01
:1002400020A204D022509EA8FED7AD6E20A004D0DC
:1002500023509EA8FED7AD6E24509EA8FED7AD6E4B
:10026000CFEF01F001501EC025F0640E266E7DDF39
:1002700000C01EF00150300E07E11FA20DD01FB6C6
:100280000BD01FB8200E03D01F961F981F80012689
:1002900001509EA8FED7AD6E1EC025F00A0E266E38
:1002A00064DF00C01EF00150300E06E11FB609D019
:1002B0001FA007D01FB8200E012601509EA8FED710
:1002C000AD6E300E1E261E509EA8FED7AD6EE8EF16
:1002D00001F01B6A186A18500408D8A07BD0185087
:1002E000FC0F13E2040FF0EF01F0EF0E956E836E3A
:1002F0000CD0DF0E956E836E08D0BF0E956E836EA8
:1003000004D07F0E956E836E00D083500F0B0F08C4
:100310005FE08350010B02E11C6A11D08350020B95
:1003200003E1010E1C6E0BD08350040B03E1020E9F
:100330001C6E05D08350080B02E1030E1C6E1C508E
:10034000040DF3501E6A1D6E010E185C036A1D2415
:10035000016E1E5003220150F2CF20F0F29E9FDE6C
:1003600020BEF28E1B6EFE0E9EA8FED7AD6E940EC2
:100370009EA8FED7AD6E010E185C1D6E1E6A1E5043
:100380009EDE1E2A006E00509EA8FED7AD6E090E9E
:100390001E5CF5E11DC01FF0180E206EFAD6FE0E91
:1003A0009EA8FED7AD6ED40E9EA8FED7AD6E1D6A78
:1003B0001D5094DE1D2A006E00509EA8FED7AD6E23
:1003C000090E1D5CF5E11CC01EF01B0E1F6E4AD706
:1003D000182A81D7FF0E956E1BC001F002EF02F0C4
:1003E000E824F76AF736FB0FF66E030EF7220A00D1
:1003F000F550FA6E0800F550F96EEA02F202FA02C0
:10040000020367D701C019F0F0922CEF00F0EA6AFE
:100410001A0EE96EEF500DE0060E016E006A002E16
:10042000FED7012EFBD77B0E006E002EFED7EF2EDF
:10043000F3D7A9EF02F0F86AD09E0D8EEA6AE96A56
:10044000B886080EAF6E020EB06EA60EAC6E900EA1
:10045000AB6EC150C00B0F09C16E070EB46E186AA7
:10046000C150C00B0F09C16EC2909698C69A949E57
:1004700093809392010EC66E000EC76ED190800ECF
:10048000D56ECD6A000ECA6E000ECB6EB150480B11
:10049000B16E070EB46E9250100E006E002EFED795
:1004A0000000B450A19CB56AF088C00EF212F19819
:1004B000FE0E9EA8FED7AD6E010E9EA8FED7AD6EB5
:1004C000FE0E9EA8FED7AD6E850E9EA8FED7AD6E21
:1004D0001A6A1A5011DE000905E01A2A9EA8FED7F2
:1004E000AD6EF7D7F00E956E95988C98959A8C9A7C
:1004F000959C8C9C959E8C9E19523EE0FE0E9EA86B
:10050000FED7AD6EC30E9EA8FED7AD6E1A6A1A5006
:1005100004DE1A2A006E00509EA8FED7AD6E0C0EA7
:100520001A5CF5E1FE0E9EA8FED7AD6ED00E9EA819
:10053000FED7AD6E3A0E9EA8FED7AD6E200E9EA8D9
:10054000FED7AD6E19509EA8FED7AD6E640E1A6E22
:100550005ED7FE0E9EA8FED7AD6E840E9EA8FED777
:10056000AD6E1A6A1A50EDDD000905E01A2A9EA840
:0C057000FED7AD6EF7D7196AB5D70300AF
:0200000400F00A
:0400000004030201F2
:020000040030CA
:0E0000003FCC3F0E0087A5000FC00FE00F4061
:00000001FF
;PIC18F4550
