:020000040000FA
:04000000BCEF0BF056
:08000800056ED8CF06F0E0CF31
:1000100007F00001E9CF0DF0EACF08F0E1CF09F0D9
:10002000E2CF0AF0D9CF0BF0DACF0CF0F3CF14F017
:10003000F4CF15F0FACF16F000C00FF001C010F0A9
:1000400002C011F003C012F004C013F0F0A82CEFAE
:1000500000F0F0B254EF03F00FC000F010C001F058
:1000600011C002F012C003F013C004F00E8E0DC0D8
:10007000E9FF08C0EAFF09C0E1FF0AC0E2FF0BC0C8
:10008000D9FF0CC0DAFF14C0F3FF15C0F4FF16C08F
:10009000FAFF055007C0E0FF06C0D8FF1000F76A5E
:1000A000AE0FF66E000EF7220900F5501200313443
:1000B000377232353830333639642A706265F2CFA0
:1000C0000EF0F29EF76AD80FF66E000EF7220900C6
:1000D000F5500EBEF28E120041646D696E00F2CFD3
:1000E0000EF0F29EF76AF80FF66E000EF722090086
:1000F000F5500EBEF28E1200557365723100F2CFCC
:100100000EF0F29EF76A180FF66E010EF722090044
:10011000F5500EBEF28E1200557365723200F2CFAA
:100120000EF0F29EF76A380FF66E010EF722090004
:10013000F5500EBEF28E1200557365723300F2CF89
:100140000EF0F29EF76A580FF66E010EF7220900C4
:10015000F5500EBEF28E1200506C6561736520651D
:100160006E74657220796F75722049440000F2CF79
:100170000EF0F29EF76A880FF66E010EF722090064
:10018000F5500EBEF28E1200312D2041646D696E65
:10019000202020322D2055736572310A0D00F2CFD8
:1001A0000EF0F29EF76AB80FF66E010EF722090004
:1001B000F5500EBEF28E1200332D2055736572324B
:1001C000202020342D2055736572330A0D00F2CFA4
:1001D0000EF0F29EF76AE80FF66E010EF7220900A4
:1001E000F5500EBEF28E1200456E74657220796F66
:1001F000757220636F646500F2CF0EF0F29EF76AAD
:10020000120FF66E020EF7220900F5500EBEF28EA6
:100210001200566F74726520636F64652065737495
:100220000000F2CF0EF0F29EF76A3C0FF66E020E5F
:10023000F7220900F5500EBEF28E1200696E636F50
:100240007272656374210000F2CF0EF0F29EF76ABD
:10025000620FF66E020EF7220900F5500EBEF28E06
:100260001200566575696C6C657A207265657373EA
:10027000617965720000F2CF0EF0F29EF76A900F7E
:10028000F66E020EF7220900F5500EBEF28E120035
:10029000456E7472657A20766F74726520636F6440
:1002A0006500F2CF0EF0F29EF76ABC0FF66E020EFA
:1002B000F7220900F5500EBEF28E120057656C63EE
:1002C0006F6D652025730000F2CF0EF0F29EF76A85
:1002D000E20FF66E020EF7220900F5500EBEF28E06
:1002E0001200202043686F6F736520616E206F706D
:1002F00074696F6E20200000F2CF0EF0F29EF76A54
:10030000120FF66E030EF7220900F5500EBEF28EA4
:100310001200312D204D6F746F7220202020322D5D
:100320002054616368790000F2CF0EF0F29EF76A04
:10033000420FF66E030EF7220900F5500EBEF28E44
:100340001200332D2047657374696F6E2020342DA1
:10035000204C6F6773200000F2CF0EF0F29EF76A18
:10036000720FF66E030EF7220900F5500EBEF28EE4
:100370001200202020202020546163687920202052
:100380002020202020200000F2CF0EF0F29EF76AFD
:10039000A20FF66E030EF7220900F5500EBEF28E84
:1003A0001200202020202047657374696F6E206D35
:1003B0006470202020200000F2CF0EF0F29EF76A39
:1003C000D20FF66E030EF7220900F5500EBEF28E24
:1003D000120020204C6173742075736572206C6F5D
:1003E000676765642000F2CF0EF0F29EF76A000F97
:1003F000F66E040EF7220900F5500EBEF28E1200C2
:100400002020202020746F2073797374656D202064
:1004100020202000F2CF0EF0F29EF76A2E0FF66E2B
:10042000040EF7220900F5500EBEF28E1200312D97
:10043000204E6578742020205245562D20456E644C
:100440002000F2CF0EF0F29EF76A5C0FF66E040EFB
:10045000F7220900F5500EBEF28E12002054696D8D
:10046000653A2025783A25783A25780A0D00F2CFAA
:100470000EF0F29EF76A880FF66E040EF72209005E
:10048000F5500EBEF28E120020446174653A2025AC
:10049000782F25782F25780A0D00F2CF0EF0F29EE6
:1004A000F76AB40FF66E040EF7220900F5500EBE7F
:1004B000F28E1200312D204E6578742020202020ED
:1004C000322D204C617374200000F2CF0EF0F29EAA
:1004D000F76AE40FF66E040EF7220900F5500EBE1F
:1004E000F28E12002020202020205245562D20453B
:1004F0006E642020202020200000F2CF0EF0F29E1B
:10050000F76A140FF66E050EF7220900F5500EBEBD
:10051000F28E120020204D6F746F7220537065654B
:1005200064200000F2CF0EF0F29EF76A3E0FF66EE6
:10053000050EF7220900F5500EBEF28E1200203192
:100540002D205570202020202020322D20446F7730
:100550006E200000F2CF0EF0F29EF76A6E0FF66E7C
:10056000050EF7220900F5500EBEF28E1200202073
:100570002020205245562D20456E6420202020202A
:1005800020200000F2CF0EF0F29EF76A9E0FF66E6A
:10059000050EF7220900F5500EBEF28E1200202043
:1005A00020202020202055702020202020202020C6
:1005B00020200000F2CF0EF0F29EF76ACE0FF66E0A
:1005C000050EF7220900F5500EBEF28E1200202013
:1005D0002020202020446F776E2020202020202003
:1005E000202000006B6B186A1850040846E318506E
:1005F000FC0F13E2040F43EF03F0EF0E956E836ED2
:100600000CD0DF0E956E836E08D0BF0E956E836E94
:1006100004D07F0E956E836E00D083500F0B0F08B1
:100620002AE08350010B02E16C6B11D08350020B66
:1006300003E1010E6C6F0BD08350040B03E1020E3B
:100640006C6F05D08350080B02E1030E6C6F6C5188
:10065000040DF3506E6B6D6F010E185C036A6D250F
:10066000016E6E5103220150F2CF70F0F29E17DD41
:1006700070BFF28E6B6F182AB7D7FF0E956E6BC0E6
:1006800001F055EF03F0E824F76AF736A10FF66E94
:10069000060EF7220A00F550FA6E0800F550F96EC2
:1006A000FA0502060A0612069DD701C028F0F0924C
:1006B0002CEF00F01B0E9EA8FED7AD6E2A0E9EA852
:1006C000FED7AD6EFF0E9EA8FED7AD6EF2EF0BF01B
:1006D000FE0E9EA8FED7AD6E010E9EA8FED7AD6E93
:1006E000000C93829380FAEF0BF0C69E9E966AC030
:1006F000C9FF020EC6BE05D09EA6FED7000EC5BC21
:10070000010E016E000CC586C5B6FED700B0C59AB5
:1007100000A0C58AC588C5B8FED7C9CF01F0000CB6
:10072000C580C5B0FED7D00E6A6FDFDF63C06AF048
:10073000DCDFC582C5B2FED7D10E6A6FD6DF006A94
:10074000E2DF01C064F0C584C5B4FED764C001F027
:10075000000CC580C5B0FED7D00E6A6FC6DF4CC096
:100760006AF0C3DF4DC06AF0C0DFC584C5B4FED7F0
:10077000000C020E636FD4DF01C044F0449C020EF3
:100780004C6E44C04DF0E5DF636BCADF01C044F03E
:10079000449E4C6A44C04DF0DCDFFCEF0BF0465049
:1007A0007F0B4B6E4C6A4D6ED4DF45507F0B4B6E0A
:1007B000010E4C6E4BC04DF0CCDF44507F0B4B6EA6
:1007C000020E4C6E4BC04DF0C4DF4A50070B4B6E0F
:1007D000030E4C6E4BC04DF0BCDF47503F0B4B6ED1
:1007E000040E4C6E4BC04DF0B4DF48501F0B4B6EE7
:1007F000050E4C6E4BC04DF0ACDF060E4C6E49C082
:100800004DF0A7DF0CEF0CF0EA6A630EE96EEF50D3
:100810000DE0060E016E006A002EFED7012EFBD7FA
:100820007B0E006E002EFED7EF2EF3D7000C0F0EBE
:10083000956E95988C98959A8C9A959C8C9C959E83
:100840008C9E000C456A4550050818E3036A455024
:10085000220FE96E000E0320EA6E44504524486ED4
:10086000F2CF49F0F29E48C0A9FFA69CA69EA680A2
:10087000A85049BEF28EEF6E452AE5D7036A45506F
:10088000220FE96E000E0320EA6EEFCF01F0000C9C
:100890003D901EDF446A445052DC442A006E0050F2
:1008A0009EA8FED7AD6E140E445CF5E1446A445038
:1008B0005EDC442A006E00509EA8FED7AD6E150E79
:1008C000445CF5E1446A44506ADC442A006E0050FE
:1008D0009EA8FED7AD6E150E445CF5E1FA0E636F6F
:1008E00093DFA5DF285269E0310E285CFC0F65E23A
:1008F000040FE2EF04F03D86EA6A290EE96EF2CFBA
:1009000044F0F29E000E5FEC00F00A000900F55082
:10091000EE6E0009FBE144BEF28E446A93DF2F6A5B
:100920003D804BD03D96EA6A290EE96EF2CF44F045
:10093000F29E000E6FEC00F00A000900F550EE6E1A
:100940000009FBE144BEF28E120E446E7BDF120EF4
:100950002F6E3D8032D03D96EA6A290EE96EF2CFC5
:1009600044F0F29E000E7FEC00F00A000900F55002
:10097000EE6E0009FBE144BEF28E240E446E62DF8F
:10098000240E2F6E3D8019D03D96EA6A290EE96E3D
:10099000F2CF44F0F29E000E8FEC00F00A00090046
:1009A000F550EE6E0009FBE144BEF28E320E446E4D
:1009B00049DF320E2F6E3D8000D0286A3DA091D7CE
:1009C00011EF0CF0F2CF0EF0F29EE824F76AF73642
:1009D000E90FF66E090EF7220A00F550FA6E0800CC
:1009E000F5500EBEF28EF96EF608240956098809F4
:1009F000622D02D0646B11D06251020803E1400EF7
:100A0000646F0BD06251030803E1140E646F05D0CC
:100A10006251040802E1540E646F6351130803E34A
:100A20006351642701D0646B800E6425656FFE0EF0
:100A30009EA8FED7AD6E65519EA8FED7AD6E000C88
:100A4000636B6EDE01507F0B196E010E636F68DE03
:100A500001507F0B1A6E020E636F62DE01507F0B36
:100A60001B6E030E636F5CDE0150070B1F6E040EDE
:100A7000636F56DE01503F0B1C6E050E636F50DE38
:100A800001501F0B1D6E060E636F4ADE01C01EF083
:100A900081EF05F0C580C5B0FED7A80E6A6F25DED0
:100AA0000150679101B06781C584C5B4FED7000EBF
:100AB00067A1010E016E000CEDDF0152FDE0C58063
:100AC000C5B0FED7A80E6A6F10DE686B640E676F44
:100AD000010E6725016E000E6821036E01C0E9FF5B
:100AE000EA6EEFCF69F069C06AF0FFDD64C06AF0BA
:100AF000FCDD66C06AF0F9DDC584C5B4FED7000C24
:100B00009FD76251622B636F656B646F1BC066F089
:100B1000D3DF6251622B636F656B646F1AC066F03E
:100B2000CBDF6251622B636F656B646F19C066F037
:100B3000C3DF6251622B636F656B646F1CC066F02C
:100B4000BBDF6251622B636F656B646F1DC066F023
:100B5000B3DF6251622B636F656B646F1EC066F01A
:100B6000ABDF000C3A50090801E23A6A036A3A50D6
:100B7000300FE96E000E0320EA6E62C0EFFF3A2AE2
:100B8000000C4490456A466A476A486A496A4A6A5C
:100B90004B6A4C6A200E4D6E4E6E4F6E506E516E0B
:100BA000540E526E680E536E610E546E6E0E556E7C
:100BB0006B0E566E200E576E590E586E6F0E596E94
:100BC000750E5A6E210E5B6E200E5C6E5D6E5E6E53
:100BD0005F6E606B3D947CDDEA6A4D0EE96E000E3F
:100BE000EF1008E0EF509EA8FED7AD6EE92AD8B40A
:100BF000EA2AF5D7FA0E636F07DE616B61511408BC
:100C00001DE3010E626F636BF3DE4D0E6125626FB3
:100C1000636BD8B0632B63C0EAFFE96E000EEF1080
:100C200008E0EF509EA8FED7AD6EE92AD8B4EA2AB4
:100C3000F5D7190E636FE8DD612BE0D749DD010EB2
:100C4000626F020E636FD4DE626B6251E7EC00F0FC
:100C5000622B006E00509EA8FED7AD6E0F0E625D37
:100C6000F4E1C70E3C6EE3DD3B6A2852D8B426D1CE
:100C70002850620816E145063C06FE0E9EA8FED7E7
:100C8000AD6E3C509EA8FED7AD6E200E9EA8FED73E
:100C9000AD6E020E626F960E636FB6DD622FFBD7EC
:100CA0000DD12850650804E045500508D8B0DBD0C8
:100CB00045500608D8A4D6D044804C6A4C5005084C
:100CC000D8A07FD0036A4C50460FE96E000E032077
:100CD000EA6EEFCF62F0036A4C50220FE96E000E0D
:100CE0000320EA6EEF50625D61E04490F1DCFE0E9D
:100CF0009EA8FED7AD6E970E9EA8FED7AD6E626B16
:100D00006251FCEC00F0622B006E00509EA8FED7F2
:100D1000AD6E0E0E625DF4E1FE0E9EA8FED7AD6EC6
:100D2000D90E9EA8FED7AD6E626B625111EC01F038
:100D3000622B006E00509EA8FED7AD6E0A0E625D5B
:100D4000F4E1020E626FFA0E636F5EDD622FFBD775
:100D5000BFDCFE0E9EA8FED7AD6ED50E9EA8FED7B8
:100D6000AD6E626B625124EC01F0622B006E00509C
:100D70009EA8FED7AD6E120E625DF4E1A9DCFE0EF8
:100D80009EA8FED7AD6E810E9EA8FED7AD6E626B9B
:100D900062513BEC01F0622B006E00509EA8FED722
:100DA000AD6E110E625DF4E1C70E3C6E036A4C50ED
:100DB000460FE96E000E0320EA6E300EEF6E4C2AED
:100DC0007DD7456A44A04ED083DC010E626F030ECE
:100DD000636F0EDE626B625151EC01F0622B006EAC
:100DE00000509EA8FED7AD6E080E625DF4E1EA6A7F
:100DF000290EE96E000EEF1008E0EF509EA8FED716
:100E0000AD6EE92AD8B4EA2AF5D7040E626FFA0E5D
:100E1000636FFADC622FFBD73DA606D0626B70DEF3
:100E20002FC062F09FDE1DD02F50120A05E0360A57
:100E30000AE0160A0FE015D0120E626F61DE2FC0B5
:100E400062F090DE0ED0240E626F5ADE2FC062F088
:100E500089DE07D0320E626F53DE2FC062F082DE71
:100E600000D03D842BD04550452A036A460FE96ED9
:100E7000000E0320EA6E28C0EFFFFE0E9EA8FED7EC
:100E8000AD6E3C509EA8FED7AD6E28509EA8FED7F2
:100E9000AD6E9B0E636FB8DC3C503C2A626FFE0E59
:100EA0009EA8FED7AD6E62519EA8FED7AD6E2A0EEB
:100EB0009EA8FED7AD6E960E636FA6DC286A3DA491
:100EC000D2D615EF0CF0200E446E456E466E476E7E
:100ED000486E496E470E4A6E6F0E4B6E4C6E640E36
:100EE0004D6E620E4E6E790E4F6E650E506E200E78
:100EF000516E526E536E546E556E566E576A3D9AD1
:100F000068EC03F0596A59507DEC02F0592A006EE2
:100F100000509EA8FED7AD6E0E0E595CF4E1030E94
:100F2000626F636B65DD596A595092EC02F0592A81
:100F3000006E00509EA8FED7AD6E140E595CF4E111
:100F4000040E626F636B54DD596A5950AAEC02F0CB
:100F5000592A006E00509EA8FED7AD6E140E595C43
:100F6000F4E165DC2852D8B492D02850310A05E06B
:100F7000030A2BE0400A51E08AD00C0E9EA8FED74F
:100F8000AD6E020E626F636B33DD596A5950C2EC6D
:100F900002F0592A006E00509EA8FED7AD6E140EC6
:100FA000595CF4E1040E626F636B22DD596A59509B
:100FB000AAEC02F0592A006E00509EA8FED7AD6E32
:100FC000140E595CF4E13D9A62D00C0E9EA8FED737
:100FD000AD6E020E626F636B0BDD596A5950DAEC2D
:100FE00002F0592A006E00509EA8FED7AD6E140E76
:100FF000595CF4E1040E626F636BFADC596A595074
:10100000AAEC02F0592A006E00509EA8FED7AD6EE1
:10101000140E595CF4E13D9A3AD068EC03F0EA6AA8
:10102000440EE96E000EEF1008E0EF509EA8FED7C8
:10103000AD6EE92AD8B4EA2AF5D7FA0E636F04EC4C
:1010400004F0586A585014081EE3010E626F636B77
:10105000CFDC440E5824596E5A6AD8B05A2A5AC066
:10106000EAFFE96E000EEF1008E0EF509EA8FED7F1
:10107000AD6EE92AD8B4EA2AF5D7190E636F04ECED
:1010800004F0582ADFD768EC03F03D8A00D0286AC4
:10109000FA0E636F04EC04F03DAA63D7A1EF0BF0E6
:1010A000F9DC0152FDE0C580C5B0FED7A80E6A6F1D
:1010B00075EC03F0616B5D0E606F010E6025016ED3
:1010C000000E6121036E01C0E9FFEA6EEFCF62F00E
:1010D00062C06AF075EC03F05DC06AF075EC03F075
:1010E000C582C5B2FED7A90E6A6F75EC03F0006A1F
:1010F00083EC03F001C05FF0C584C5B4FED75FC0C8
:1011000001F0000C5B50000A07E0120A17E0360AF3
:1011100027E0160A37E048D0EA6A290EE96EF2CFD6
:101120005CF0F29E000E5FEC00F00A000900F55042
:10113000EE6E0009FBE15CBEF28E36D0EA6A290E43
:10114000E96EF2CF5CF0F29E000E6FEC00F00A0048
:101150000900F550EE6E0009FBE15CBEF28E24D072
:10116000EA6A290EE96EF2CF5CF0F29E000E7FEC87
:1011700000F00A000900F550EE6E0009FBE15CBECC
:10118000F28E12D0EA6A290EE96EF2CF5CF0F29E7E
:10119000000E8FEC00F00A000900F550EE6E000919
:1011A000FBE15CBEF28E00D05B505B2A5C6E5E6A37
:1011B0005D6E76DF01C03EF05B505B2A5C6E5E6A5E
:1011C0005D6E6EDF01C03FF05B505B2A5C6E5E6A55
:1011D0005D6E66DF01C040F05B505B2A5C6E5E6A4C
:1011E0005D6E5EDF01C041F05B505B2A5C6E5E6A43
:1011F0005D6E56DF01C042F05B505B2A5C6E5E6A3A
:101200005D6E4EDF01C043F0000C5BBE10D00F0ED0
:10121000006E5A3800160A0E005C03E2300E0026FB
:1012200002D05B50002600509EA8FED7AD6E0F0E78
:101230005A160A0E5A5C02E2300E02D05B9E5B50D8
:101240005A265A509EA8FED7AD6E000C200E446E52
:10125000456E466E476E486E496E4A6E470E4B6E3F
:101260006F0E4C6E4D6E640E4E6E620E4F6E790EAA
:10127000506E650E516E200E526E536E546E556E4A
:10128000566E576A3D9268EC03F0596A5950DCEC8F
:1012900001F0592A006E00509EA8FED7AD6E130EC5
:1012A000595CF4E1020E626F636BF8EC04F0596A6A
:1012B0005950F3EC01F0592A006E00509EA8FED759
:1012C000AD6E130E595CF4E1040E626F636BF8ECC3
:1012D00004F0596A59500AEC02F0592A006E005085
:1012E0009EA8FED7AD6E130E595CF4E117EC04F026
:1012F0002852D8B49AD12850310A07E0030AD8B44A
:10130000AED0400AD8B455D190D13B500908D8A0EE
:101310003B6A3B503B2A036A300FE96E000E032004
:10132000EA6EEFCF5AF05AC05BF0ECDE68EC03F0E7
:10133000EA6A290EE96E000EEF1008E0EF509EA851
:10134000FED7AD6EE92AD8B4EA2AF5D7010E626F4E
:10135000050E636FF8EC04F0596A595021EC02F065
:10136000592A006E00509EA8FED7AD6E070E595C3C
:10137000F4E13EC05AF0570E5B6E47DF3A0E9EA86E
:10138000FED7AD6E3FC05AF0570E5B6E3EDF3A0E91
:101390009EA8FED7AD6E40C05AF0570E5B6E35DF8B
:1013A0000A0E9EA8FED7AD6E0D0E9EA8FED7AD6E9E
:1013B000020E626F050E636FF8EC04F0596A595023
:1013C00037EC02F0592A006E00509EA8FED7AD6E91
:1013D000070E595CF4E141C05AF0570E5B6E15DF01
:1013E0002F0E9EA8FED7AD6E42C05AF0570E5B6E10
:1013F0000CDF2F0E9EA8FED7AD6E43C05AF0570EDD
:101400005B6E03DF0A0E9EA8FED7AD6E0D0E9EA882
:10141000FED7AD6E030E626F636BF8EC04F0596A91
:1014200059504DEC02F0592A006E00509EA8FED78C
:10143000AD6E140E595CF4E1040E626F636BF8EC50
:1014400004F0596A595065EC02F0592A006E0050B8
:101450009EA8FED7AD6E140E595CF4E1E6D03B5069
:101460000908D8A03B6A3B503B06036A300FE96E7F
:10147000000E0320EA6EEFCF5AF05AC05BF042DE56
:1014800068EC03F0EA6A290EE96E000EEF1008E03E
:10149000EF509EA8FED7AD6EE92AD8B4EA2AF5D758
:1014A000010E626F050E636FF8EC04F0596A595033
:1014B00021EC02F0592A006E00509EA8FED7AD6EB6
:1014C000070E595CF4E13EC05AF0570E5B6E9DDE8C
:1014D0003A0E9EA8FED7AD6E3FC05AF0570E5B6E17
:1014E00094DE3A0E9EA8FED7AD6E40C05AF0570E5D
:1014F0005B6E8BDE0A0E9EA8FED7AD6E0D0E9EA80B
:10150000FED7AD6E020E626F050E636FF8EC04F04D
:10151000596A595037EC02F0592A006E00509EA8C3
:10152000FED7AD6E070E595CF4E141C05AF0570E7C
:101530005B6E6BDE2F0E9EA8FED7AD6E42C05AF0DA
:10154000570E5B6E62DE2F0E9EA8FED7AD6E43C0B7
:101550005AF0570E5B6E59DE0A0E9EA8FED7AD6E8E
:101560000D0E9EA8FED7AD6E030E626F636BF8EC96
:1015700004F0596A59504DEC02F0592A006E00509F
:101580009EA8FED7AD6E140E595CF4E1040E626F96
:10159000636BF8EC04F0596A595065EC02F0592A73
:1015A000006E00509EA8FED7AD6E140E595CF4E19B
:1015B0003CD03D9468EC03F0EA6A440EE96E000EFC
:1015C000EF1008E0EF509EA8FED7AD6EE92AD8B420
:1015D000EA2AF5D7FA0E636F04EC04F0586A585003
:1015E00014081FE3010E626F636BF8EC04F0440E05
:1015F0005824596E5A6AD8B05A2A5AC0EAFFE96E7E
:10160000000EEF1008E0EF509EA8FED7AD6EE92A5D
:10161000D8B4EA2AF5D7190E636F04EC04F0582AFF
:10162000DED768EC03F03D8200D0286AFA0E636FC3
:1016300004EC04F03DA25AD6A1EF0BF03D9868EC03
:1016400003F0446A445064EC01F0442A006E0050F8
:101650009EA8FED7AD6E140E445CF4E1030E626FDB
:10166000636BF8EC04F0446A44507CEC01F0442ACB
:10167000006E00509EA8FED7AD6E140E445CF4E1DF
:101680003DA612D0040E626F636BF8EC04F0446A5E
:10169000445094EC01F0442A006E00509EA8FED7FE
:1016A000AD6E140E445CF4E117EC04F0285249E0EE
:1016B000310E285CFC0F45E2040FA6EF0BF03D88CD
:1016C00002D468EC03F0030E626F636BF8EC04F075
:1016D000446A4450ACEC01F0442A006E00509EA8CD
:1016E000FED7AD6E140E445CF4E1FA0E636F04ECA9
:1016F00004F03D8826D03DB601D023D068EC03F03D
:10170000030E626F636BF8EC04F0446A4450C4EC5F
:1017100001F0442A006E00509EA8FED7AD6E140E54
:10172000445CF4E1FA0E636F04EC04F03D8809D0E8
:101730003DB601D006D0FA0E636F04EC04F03D888C
:1017400085D5286A3DA8B0D71AEF0CF0F2CF0EF07D
:10175000F29EE824F76AF736710FF66E170EF7223D
:101760000A00F550FA6E0800F5500EBEF28EF96EC2
:10177000BE16C216F6163017F86AD09E0D8EEA6AAB
:10178000E96AB886080EAF6E020EB06EA60EAC6E99
:10179000900EAB6E938293800B0EC86E280EC66EB1
:1017A000C79EC79CC150C00B0F09C16E070EB46E17
:1017B000186A206A216A226A236A246A256A266ACC
:1017C000276A306A316A326A336A346A356A366A3D
:1017D000376A386A396A3D903D943D963D983D9A06
:1017E0005AEF03F068EC03F0F088C00EF212F198A3
:1017F00071EF03F0B9EF03F0230E446E590E456EFE
:10180000500E466E200E476E030E486E120E496E45
:10181000030E4A6ECFEF03F03D823DA202D048EFA7
:1018200004F03DA007D0C1EF05F03DA003D03DA4DA
:0818300001D004D7F2D7030038
:0200000400F00A
:06000000313233343536C5
:06001200323334353637AD
:0600240033343536373895
:0600320034353637383981
:020000040030CA
:0E0000003FCC3F0E0087A5000FC00FE00F4061
:00000001FF
;PIC18F4550
