:1000000093EF01F020202D2D205043463835383312
:10001000202D2D0A0D0054696D653A2025583A258A
:10002000583A25580A0D0000446174653A20446925
:100030006D2D0000446174653A204C756E2D0000F2
:10004000446174653A204D61722D0000446174650D
:100050003A204D65722D0000446174653A204A656E
:10006000752D0000446174653A2056656E2D0000C0
:10007000446174653A2053616D2D0000C69E9E96C2
:100080001BC0C9FF020EC6BE05D09EA6FED7000E3D
:10009000C5BC010E016E000CC580C5B0FED7A20E16
:1000A0001B6EECDF1B6AEADF11C01BF0E7DFC584C3
:1000B000C5B4FED796EF00F0C580C5B0FED7A20E3E
:1000C0001B6EDCDF19C01BF0D9DF1AC01BF0D6DFB6
:1000D000C584C5B4FED7000CC69CC586C5B6FED780
:1000E00000B0C59A00A0C58AC588C5B8FED7C9CFDB
:1000F00001F08CEF00F0C580C5B0FED7A20E1B6EDC
:10010000BDDF11C01BF0BADFC582C5B2FED7A30E9A
:100110001B6EB4DF006AE0D701C012F0C584C5B41D
:10012000FED712C001F0000C116AB6D7109C020E67
:10013000196E10C01AF0C0DF116ADDDF01C010F0C7
:10014000109E196A10C01AF0B7DFB1EF01F012501B
:100150007F0B186E020E196E18C01AF0ADDF115029
:100160007F0B186E030E196E18C01AF0A5DF040E6F
:10017000196E10C01AF0A0DF13503F0B176E155008
:10018000030B006E003A00360036C00E0016005019
:100190001712050E196E17C01AF08EDF14501F0BC0
:1001A000176E1638006E0036E00E0016005017125B
:1001B000060E196E17C01AF07FDFCFEF01F0020EA6
:1001C000116E99DF01507F0B046E030E116E93DFE9
:1001D00001507F0B056E040E116E8DDF01507F0BF9
:1001E000066E050E116E87DF01C010F010503F0B38
:1001F000076E1050C00B006E0038096E09320932CC
:10020000030E0916060E116E76DF01C010F01050B5
:100210001F0B086E1050E00B006E00380A6E0A3299
:10022000070E0A16D0EF01F0102C02D0126A11D07E
:100230001050020803E1400E126E0BD0105003085C
:1002400003E1140E126E05D01050040802E1540EA2
:10025000126E1150130803E31150122601D0126AD6
:10026000800E1224136EFE0E9EA8FED7AD6E1350A4
:100270009EA8FED7AD6E000C0900F5520DE0F6CF3A
:1002800010F0F7CF11F0F5509EA8FED7AD6E10C05C
:10029000F6FF11C0F7FFF0D7000C0900F6CF11F000
:1002A000F7CF12F0F5509EA8FED7AD6E11C0F6FF45
:1002B00012C0F7FF102EF1D71FEF02F011BE10D0C1
:1002C0000F0E006E103800160A0E005C03E2300EAE
:1002D000002602D01150002600509EA8FED7AD6E19
:1002E0000F0E10160A0E105C02E2300E02D0119EA4
:1002F0001150102610509EA8FED7AD6E000CEA6A71
:10030000110EE96EEF500DE0060E016E006A002E30
:10031000FED7012EFBD77B0E006E002EFED7EF2EF0
:10032000F3D798EF02F0F86AD09EEA6AE96AB886D5
:10033000080EAF6E020EB06EA60EAC6E900EAB6ED7
:10034000938293800C0EC86E280EC66EC79EC79C03
:10035000C150C00B0F09C16E070EB46E0B6A0C6A58
:10036000E3D60F82000E0FB2010E000A03E0010A6D
:1003700004E006D0230E0D6E03D0D10E0D6E00D01A
:100380000DC010F0590E116E500E126E200E136E2D
:10039000030E146E120E156E030E166ED8D60FD7FE
:1003A000100E09260C0E9EA8FED7AD6E0FA232D0FD
:1003B0000650400B0E6E0E50400802E10F8001D037
:1003C0000F901F0E0616020E106E0F0E116E2CDF10
:1003D000000E0FB0010E000A03E0010A0EE01AD071
:1003E000200E9EA8FED7AD6E410E9EA8FED7AD6E24
:1003F0004D0E9EA8FED7AD6E0DD0200E9EA8FED746
:10040000AD6E500E9EA8FED7AD6E4D0E9EA8FED7C7
:10041000AD6E00D0010E106E116E06DF040EF66E8A
:10042000000EF76E29DF020E106E010E116EFCDE5B
:10043000160EF66E000EF76E060E106E2ED706C064
:1004400010F0370E116E3ADF3A0E9EA8FED7AD6E51
:1004500005C010F0370E116E31DF3A0E9EA8FED7A0
:10046000AD6E04C010F0370E116E28DF0A0E9EA884
:10047000FED7AD6E0D0E9EA8FED7AD6E030E106EAC
:10048000010E116ED1DE010E0A5CF90F2DE2070F8D
:100490009CEF02F0280EF66E000EF76EEDDE24D013
:1004A000340EF66E000EF76EE7DE1ED0400EF66ECE
:1004B000000EF76EE1DE18D04C0EF66E000EF76EF1
:1004C000DBDE12D0580EF66E000EF76ED5DE0CD0C5
:1004D000640EF66E000EF76ECFDE06D0700EF66E6E
:1004E000000EF76EC9DE00D007C010F0370E116E97
:1004F000E5DE2F0E9EA8FED7AD6E08C010F0370EB9
:10050000116EDCDE2F0E9EA8FED7AD6E09C010F076
:10051000370E116ED3DE0A0E9EA8FED7AD6E0D0EFD
:100520009EA8FED7AD6E040E106EFA0E116EE7D6C1
:10053000102EFBD734D70300E824F76AF736530FA1
:10054000F66E050EF7220A00F550FA6E0800F55017
:10055000F96E9404A004AC04B804C404D004DC0410
:020000040030CA
:0E0000003FCC3F0E0087A5000FC00FE00F4061
:00000001FF
;PIC18F4550
;CRC=38B0  CREATED="21-mars-12 02:48"
