:020000040000FA
:1000000034EF00F0EA6A070EE96EEF500DE0060EDD
:10001000016E006A002EFED7012EFBD77B0E006E0C
:10002000002EFED7EF2EF3D7000C93908A90080E87
:10003000066EFA0E076EE6DF062EFBD793928A82D3
:100040000C0E066EFA0E076EDDDF062EFBD79390C0
:100050008A8093928A92080E066EFA0E076ED2DF9D
:10006000062EFBD76DEF00F0F86AD09EEA6AE96AC7
:10007000B886080EAF6E020EB06EA60EAC6E900E75
:10008000AB6EC150C00B0F09C16E070EB46EC150EC
:10009000C00B0F09C16EC2909698C69A949E938029
:1000A0009392010EC66E000EC76ED190800ED56E73
:1000B000CD6A000ECA6E000ECB6E070EB46E925063
:1000C000100E006E002EFED70000B450A19CB56A41
:0E00D00093908A8093928A92A8D7FED703005D
:020000040030CA
:0E0000003FCC3F0E0087A5000FC00FE00F4061
:00000001FF
;PIC18F4550
