:10000000FDEF00F041206C27616472657373652019
:1000100025334C64206C610076616C6575722061DB
:1000200020313020646520706C75730A0D206327C1
:100030006573742061206469726520253375000042
:100040000900F6CF0AF0F7CF0BF0F5509EA8FED7C7
:10005000AD6E0AC0F6FF0BC0F7FF092EF1D7000CFA
:10006000EACF11F0E9CF10F00AAE08D0108E10A838
:10007000102A091E0A1E092AD8B40A2A0A38F009C9
:100080000C6E0C26E20F0D6E320F0F6E0A500F0B26
:100090000D260D260F26E90F0E6E0E260E260938A8
:1000A0000F0B0E260F260E360F360F1E0F36095079
:1000B0000F0B0F260C36070E0B6E0A0E0E060F26C0
:1000C000FDE30D060E26FDE30C060D26FDE30B06F3
:1000D0000C26FDE3EA6A0B0EE96E070E1014109C65
:1000E000E906101407E110B8E92A10B803D0200E71
:1000F000006E1CD0E9260F0EE95CD8B4108CEF50CE
:10010000006E08E110BC06D010B814D010B602D0B2
:10011000200E0BD010AE06D02D0E006EED50109CB0
:10012000109E04D010861098300E002600509EA815
:10013000FED7AD6EEE5010ACDED78BEF01F00C5059
:10014000016A0B5C03E20BC000F00CD0006A080EE1
:100150000D6E0B3600360C50005CD8B0006E0136C8
:100160000D2EF7D7000C015009C00BF0640E0C6E79
:10017000E6DF00C009F00150300E07E10AA20DD001
:100180000AB60BD00AB8200E03D00A960A980A8045
:10019000012601509EA8FED7AD6E09C00BF00A0ED5
:1001A0000C6ECDDF00C009F00150300E06E10AB63A
:1001B00009D00AA007D00AB8200E012601509EA837
:1001C000FED7AD6E300E092609509EA8FED7AD6E43
:1001D000ABEF01F0EA6A0A0EE96EEF500DE0060E91
:1001E000016E006A002EFED7012EFBD77B0E006E3B
:1001F000002EFED7EF2EF3D7000CF86AD09EEA6AE5
:10020000E96AB886080EAF6E020EB06EA60EAC6E2E
:10021000900EAB6EC150C00B0F09C16E070EB46ECD
:10022000C150C00B0F09C16EC2909698C66AD1909A
:10023000800ED56ECD6A000ECA6E000ECB6E070E14
:10024000B46E9250926E100E006E002EFED700001B
:10025000B450A19CB56AD36AD350FE0E9EA8FED7B7
:10026000AD6E010E9EA8FED7AD6E086A076A08BE85
:1002700005D0085224E10750FE0821E30A0E0724A6
:10028000016E000E082001C005F007C0A9FF05C0DF
:10029000A8FFA69CA69EA684F250006EF29E0F01B7
:1002A000550EA76EAA0EA76EA682A6B2FED7A6947A
:1002B0000050F212072AD8B4082A0001D8D7086AD9
:1002C000FE0E076E08BE4FD000D0F2CF09F0F29EAE
:1002D00007C0A9FFA69CA69EA680A85009BEF28EC4
:1002E000066E0C0E9EA8FED7AD6EFE0E9EA8FED723
:1002F000AD6EC00E9EA8FED7AD6E040EF66E000E5B
:10030000F76E0C0E096E9CDE030EE96E08C00AF053
:1003100007C009F0A5D6200E9EA8FED7AD6E6C0EC4
:100320009EA8FED7AD6E610E9EA8FED7AD6EFE0EE6
:100330009EA8FED7AD6E940E9EA8FED7AD6E180E89
:10034000F66E000EF76E230E096E7ADE06C009F017
:10035000130E0A6E08D7FA0E0A6E3CDF0750D8B4A7
:1003600008060706AFD7040E096EFA0E0A6E32DFD2
:08037000092EFBD7A4D70300FE
:020000040030CA
:0E0000003FCC3F0E0087A5000FC00FE00F4061
:00000001FF
;PIC18F4550
;CRC=8077  CREATED="22-mars-12 17:17"
