:020000040000FA
:10000000C8EF00F0F76A140FF66E000EF722090031
:10001000F5501200205445535420525332333220AD
:10002000657420534C43440A0D2020737572205090
:10003000494320313846343535300A0D4C61622051
:10004000326120636F7572733A3234332D34343435
:100050000000F76A620FF66E000EF7220900F550F5
:10006000120076616C657572203D202564200000C9
:10007000EA6A080EE96EEF500DE0060E016E006AA6
:10008000002EFED7012EFBD77B0E006E002EFED772
:10009000EF2EF3D7000C0F50016A0E5C03E20EC086
:1000A00000F00CD0006A080E106E0E3600360F50AD
:1000B000005CD8B0006E0136102EF7D7000C200E71
:1000C00009A8300E0A6E08C000F008AE07D0001E66
:1000D000002A00C008F02D0E0A6E098E015008C0DB
:1000E0000EF0640E0F6ED7DF00C008F0300E012452
:1000F0000B6E08C00EF00A0E0F6ECDDF300E00241E
:100100000D6E300E01240C6E0AC000F009A602D05C
:1001100009AE099409B80BD009AE22D009B420D099
:1001200000C00BF009B21CD000C00CF019D0300E8A
:100130000B5C16E100C00BF0200E0A6E09A604D07D
:100140000994098209AE0992300E0C5C09E100C0E5
:100150000CF0200E0B6E09A6F7D7099209AE099094
:1001600009A404D00A509EA8FED7AD6E09A204D0FF
:100170000B509EA8FED7AD6E09A004D00C509EA8CF
:10018000FED7AD6E0D509EA8FED7AD6E36EF01F0D6
:10019000F86AD09EEA6AE96AB886080EAF6E020E67
:1001A000B06EA60EAC6E900EAB6EC150C00B0F09B8
:1001B000C16E070EB46EC150C00B0F09C16EC29064
:1001C0009698C69A949E93809392010EC66E000EE6
:1001D000C76ED190800ED56ECD6A000ECA6E000E2D
:1001E000CB6E070EB46E9250100E006E002EFED72E
:1001F0000000B450A19CB56A066AFE0E9EA8FED708
:10020000AD6E010E9EA8FED7AD6E076A0750FADEEE
:10021000072A006E00509EA8FED7AD6E3C0E075C0C
:10022000F5E10C0E076EFA0E086E22DF072EFBD7E3
:10023000063C01D0066A010E0626FE0E9EA8FED7D9
:10024000AD6ED90E9EA8FED7AD6E076A075001DFCE
:10025000072A006E00509EA8FED7AD6E090E075CFF
:10026000F5E106C008F01F0E096E29D7200E9EA8E2
:10027000FED7AD6E040E076EFA0E086EF9DE072E7D
:06028000FBD7D6D70300F6
:020000040030CA
:0E0000003FCC3F0E0087A5000FC00FE00F4061
:00000001FF
;PIC18F4550
