:020000040000FA
:100000003FEF00F0EA6A070EE96EEF500DE0060ED2
:10001000016E006A002EFED7012EFBD77B0E006E0C
:10002000002EFED7EF2EF3D7000C93908A80939288
:100030008A82040E066EFA0E076EE4DF062EFBD7E8
:1000400093928A92080E066EFA0E076EDBDF062E7A
:10005000FBD77EEF00F093908A90080E066EFA0EA2
:10006000076ED0DF062EFBD793908A80040E066EB3
:10007000FA0E076EC7DF062EFBD77FEF00F0F86A97
:10008000D09EEA6AE96AB886080EAF6E020EB06EBC
:10009000A60EAC6E900EAB6EC150C00B0F09C16EB8
:1000A000070EB46EC150C00B0F09C16EC290969876
:1000B000C69A949E93809392010EC66E000EC76EF0
:1000C000D190800ED56ECD6A000ECA6E000ECB6E3A
:1000D000070EB46E9250100E006E002EFED7000078
:1000E000B450A19CB56A93908A8093928A92C80E6C
:1000F000076E88DF938481B401D097D7ACD7F7D748
:020100000300FA
:020000040030CA
:0E0000003FCC3F0E0087A5000FC00FE00F4061
:00000001FF
;PIC18F4550
