:1000000078EF01F020202D2D20445331333037205C
:100010002D2D0A0D00002054696D653A2025583AAF
:1000200025583A25580A0D00446174653A20446900
:100030006D2D0000446174653A204C756E2D0000F2
:10004000446174653A204D61722D0000446174650D
:100050003A204D65722D0000446174653A204A656E
:10006000752D0000446174653A2056656E2D0000C0
:10007000446174653A2053616D2D0000C69E9E96C2
:1000800017C0C9FF020EC6BE05D09EA6FED7000E41
:10009000C5BC010E016E000CC69CC586C5B6FED758
:1000A00000B0C59A00A0C58AC588C5B8FED7C9CF1B
:1000B00001F06CEF00F0C580C5B0FED7D00E176E12
:1000C000DDDF0EC017F0DADFC582C5B2FED7D10E74
:1000D000176ED4DF006AE0D701C00FF0C584C5B445
:1000E000FED70FC001F0000CC580C5B0FED7D00E02
:1000F000176EC4DF15C017F0C1DF16C017F0BEDFE2
:10010000C584C5B4FED7000C020E0E6ED4DF01C04C
:100110000DF00D9C020E156E0DC016F0E5DF0E6A97
:10012000CADF01C00DF00D9E156A0DC016F0DCDFB0
:10013000A3EF01F00F507F0B146E156A166ED4DF1B
:100140000E507F0B146E010E156E14C016F0CCDF2E
:100150000D507F0B146E020E156E14C016F0C4DF26
:100160001350070B146E030E156E14C016F0BCDF8F
:1001700010503F0B146E040E156E14C016F0B4DF51
:1001800011501F0B146E050E156E14C016F0ACDF67
:10019000060E156E12C016F0A7DFB2EF01F00E6A60
:1001A0008ADF01507F0B046E010E0E6E84DF01505A
:1001B0007F0B056E020E0E6E7EDF01507F0B066E0A
:1001C000030E0E6E78DF0150070B0A6E040E0E6EE2
:1001D00072DF01503F0B076E050E0E6E6CDF015093
:1001E0001F0B086E060E0E6E66DF01C009F0B7EF3A
:1001F00001F00D2C02D00F6A11D00D50020803E15E
:10020000400E0F6E0BD00D50030803E1140E0F6E5D
:1002100005D00D50040802E1540E0F6E0E50130865
:1002200003E30E500F2601D00F6A800E0F24106ECC
:10023000FE0E9EA8FED7AD6E10509EA8FED7AD6EE6
:10024000000C0900F5520DE0F6CF0DF0F7CF0EF0DF
:10025000F5509EA8FED7AD6E0DC0F6FF0EC0F7FF9D
:10026000F0D7000C0900F6CF0EF0F7CF0FF0F550E5
:100270009EA8FED7AD6E0EC0F6FF0FC0F7FF0D2E85
:10028000F1D7C7EF01F00EBE10D00F0E006E0D3883
:1002900000160A0E005C03E2300E002602D00E505B
:1002A000002600509EA8FED7AD6E0F0E0D160A0E4A
:1002B0000D5C02E2300E02D00E9E0E500D260D5047
:1002C0009EA8FED7AD6E000CEA6A0E0EE96EEF50E6
:1002D0000DE0060E016E006A002EFED7012EFBD740
:1002E0007B0E006E002EFED7EF2EF3D740EF02F00C
:1002F000F86AD09EFE0E006E080E016E020EE96EC8
:10030000000EEA6EEE6A002EFDD7012EFBD7EA6AD8
:10031000E96AB886080EAF6E020EB06EA60EAC6E1D
:10032000900EAB6E938293800C0EC86E280EC66E34
:10033000C79EC79CC150C00B0F09C16E070EB46E9B
:100340000B6A0C6AE1D6110E0D6E590E0E6E500E30
:100350000F6E200E106E030E116E120E126E030E33
:10036000136EE8D60C0E9EA8FED7AD6E18D7010E00
:100370000D6E0E6E3EDF040EF66E000EF76E61DF40
:10038000160EF66E000EF76E070E0D6E6BD706C0DA
:100390000DF0370E0E6E77DF3A0E9EA8FED7AD6ECB
:1003A00005C00DF0370E0E6E6EDF3A0E9EA8FED71A
:1003B000AD6E04C00DF0370E0E6E65DF0A0E9EA8FE
:1003C000FED7AD6E0D0E9EA8FED7AD6E030E0D6E60
:1003D000010E0E6E0EDF010E0A5CF90F2DE2070F03
:1003E00044EF02F0280EF66E000EF76E2ADF24D0DE
:1003F000340EF66E000EF76E24DF1ED0400EF66E41
:10040000000EF76E1EDF18D04C0EF66E000EF76E63
:1004100018DF12D0580EF66E000EF76E12DF0CD0F9
:10042000640EF66E000EF76E0CDF06D0700EF66EE0
:10043000000EF76E06DF00D007C00DF0370E0E6E0F
:1004400022DF2F0E9EA8FED7AD6E08C00DF0370E2E
:100450000E6E19DF2F0E9EA8FED7AD6E09C00DF0EF
:10046000370E0E6E10DF0A0E9EA8FED7AD6E0D0E73
:100470009EA8FED7AD6E040E0D6EFA0E0E6E24D73A
:100480000D2EFBD76FD70300E824F76AF736A30FCA
:10049000F66E040EF7220A00F550FA6E0800F550C9
:1004A000F96EE403F003FC030804140420042C0494
:020000040030CA
:0E0000003FCC3F0E0087A5000FC00FE00F4061
:00000001FF
;PIC18F4550
;CRC=3BD3  CREATED="31-mars-12 22:43"
