:10000000AFEF01F05175656C6C65206865757265C0
:1000100020696C206573743F000048657572652027
:100020003A20253032643A253032643A2530326441
:100030000D0A00006A6F757220203A202530326464
:100040000D0A00004461746520203A202530326496
:100050002F253032642F3230253032640D0A0000F3
:100060000900F5520DE0F6CF0CF0F7CF0DF0F5508A
:100070009EA8FED7AD6E0CC0F6FF0DC0F7FFF0D7FF
:10008000F1EF01F0EA6A0D0EE96EEF500DE0060E99
:10009000016E006A002EFED7012EFBD77B0E006E8C
:1000A000002EFED7EF2EF3D7000CC69E9E9614C0EE
:1000B000C9FF020EC6BE05D09EA6FED7000EC5BC67
:1000C000010E016E000CC69CC586C5B6FED700B0F9
:1000D000C59A00A0C58AC588C5B8FED7C9CF01F0AA
:1000E000000C11C012F0D8901232780E1216123095
:1000F000006E00323F0E001600501224136E115095
:100100000F0B1324016E000C13C014F0156A145069
:10011000090805E20A0E145E100E152603D01450CD
:10012000152601D0F4D715C001F0000C0C6AC5806B
:10013000C5B0FED7D00E146EB8DF146AB6DFC58224
:10014000C5B2FED7D10E146EB0DF006ABCDF01C0AD
:100150000DF001C011F0C5DF01C00CF0C584C5B4BD
:10016000FED70C9E040E006E002EFED700D0C58078
:10017000C5B0FED7D00E146E98DF146A96DF0CC09F
:1001800013F0C2DF01C00DF001C014F08EDFC58294
:10019000C5B2FED7D00E146E88DF070E146E85DF51
:1001A000800E146E82DFC584C5B4FED7F9EF01F06E
:1001B000129E3F0E1016C580C5B0FED7D00E146E2D
:1001C00074DF146A72DF12C013F09EDF01C013F0F7
:1001D00001C014F06ADF11C013F096DF01C013F004
:1001E00001C014F062DF10C013F08EDF01C013F005
:1001F00001C014F05ADF0FC013F086DF01C013F006
:1002000001C014F052DF0CC013F07EDF01C013F008
:1002100001C014F04ADF0DC013F076DF01C013F007
:1002200001C014F042DF0EC013F06EDF01C013F006
:1002300001C014F03ADF800E146E37DFC584C5B4F8
:10024000FED708EF02F00900F6CF0DF0F7CF0EF061
:10025000F5509EA8FED7AD6E0DC0F6FF0EC0F7FF9D
:100260000C2EF1D7000C1350016A125C03E212C08D
:1002700000F00CD0006A080E146E123600361350CF
:10028000005CD8B0006E0136142EF7D7000C200E9B
:100290000DA8300E0E6E0CC000F00CAE07D0001E84
:1002A000002A00C00CF02D0E0E6E0D8E01500CC0F9
:1002B00012F0640E136ED7DF00C00CF0300E012474
:1002C0000F6E0CC012F00A0E136ECDDF300E00243C
:1002D000116E300E0124106E0EC000F00DA602D07B
:1002E0000DAE0D940DB80BD00DAE22D00DB420D0B4
:1002F00000C00FF00DB21CD000C010F019D0300EAD
:100300000F5C16E100C00FF0200E0E6E0DA604D09B
:100310000D940D820DAE0D92300E105C09E100C0FF
:1003200010F0200E0F6E0DA6F7D70D920DAE0D90AA
:100330000DA404D00E509EA8FED7AD6E0DA204D021
:100340000F509EA8FED7AD6E0DA004D010509EA8F1
:10035000FED7AD6E11509EA8FED7AD6E000CF86AA8
:10036000D09EEA6AE96AB886080EAF6E020EB06ED9
:10037000A60EAC6E900EAB6E938293800C0EC86E80
:10038000280EC66EC79EC79CC150C00B0F09C16E18
:10039000070EB46EC150C00B0F09C16EC290969883
:1003A000D190800ED56ECD6A000ECA6E000ECB6E57
:1003B000070EB46E9250926E100E006E002EFED795
:1003C0000000B450A19CB56AFE0E9EA8FED7AD6E8B
:1003D000010E9EA8FED7AD6E040EF66E000EF76EEF
:1003E0003FD60C0E0C6EFA0E0D6E4CDE0C2EFBD7AB
:1003F0009DD6010E0C6E040E0D6E0C0E0E6E020ECE
:100400000F6E0F0E106E140E116E370E126ED0D6C8
:10041000040E0C6EFA0E0D6E35DE0C2EFBD7C58069
:10042000C5B0FED7D00E146E40DE030E146E3DDE56
:10043000C582C5B2FED7D10E146E37DE010E006E36
:1004400042DE01507F0B0C6E116E4BDE01C00BF0D3
:10045000010E006E38DE01503F0B0C6E116E41DE56
:1004600001C008F0010E006E2EDE01501F0B0C6E55
:10047000116E37DE01C009F0006A25DE01C00CF004
:1004800001C011F02EDE01C00AF0C584C5B4FED74C
:10049000C580C5B0FED7D00E146E07DE146A05DE27
:1004A000C582C5B2FED7D10E146EFFDD010E006EFF
:1004B0000ADE01507F0B0C6E116E13DE01C005F0D9
:1004C000010E006E00DE01507F0B0C6E116E09DE16
:1004D00001C006F0006AF7DD01503F0B0C6E116E93
:1004E00000DE01C007F0C584C5B4FED7FE0E9EA88D
:1004F000FED7AD6E010E9EA8FED7AD6E1A0EF66E3B
:10050000000EF76E080E0C6E9EDE07C00CF0010E9A
:100510000D6EBDDE3A0E9EA8FED7AD6E06C00CF085
:10052000010E0D6EB4DE3A0E9EA8FED7AD6E05C06C
:100530000CF0010E0D6EABDE0D0E9EA8FED7AD6E5B
:100540000A0E9EA8FED7AD6E340EF66E000EF76E44
:10055000080E0C6E78DE0BC00CF0010E0D6E97DEEF
:100560000D0E9EA8FED7AD6E0A0E9EA8FED7AD6EEC
:10057000440EF66E000EF76E080E0C6E64DE08C0B8
:100580000CF0010E0D6E83DE2F0E9EA8FED7AD6E11
:1005900009C00CF0010E0D6E7ADE2F0E9EA8FED75C
:1005A000AD6E320E9EA8FED7AD6E300E9EA8FED761
:1005B000AD6E0AC00CF0010E0D6E69DE0D0E9EA828
:1005C000FED7AD6E0A0E9EA8FED7AD6E21D70300F2
:020000040030CA
:0E0000003FCC3F0E0087A5000FC00FE00F4061
:00000001FF
;PIC18F4550
;CRC=CF0F  CREATED="31-mars-12 22:41"
