:020000040000FA
:1000000066EF00F0F76A140FF66E000EF722090093
:10001000F55012000D0A4672657175656E63793A86
:100020000D0A0000F76A340FF66E000EF722090081
:10003000F55012002020202031292032302E382087
:100040006B687A0D0A00F76A560FF66E000EF722FB
:100050000900F55012002020202032292035206B85
:10006000687A0D0A0000F76A760FF66E000EF72226
:100070000900F550120020202020332920312E3293
:10008000206B687A0D0A000009BE10D00F0E006EBA
:10009000083800160A0E005C03E2300E002602D07B
:1000A0000950002600509EA8FED7AD6E0F0E081610
:1000B0000A0E085C02E2300E02D0099E09500826A2
:1000C00008509EA8FED7AD6EF6EF00F0F86AD09EFD
:1000D000EA6AE96AB886080EAF6E020EB06EA60E26
:1000E000AC6E900EAB6EC150C00B0F09C16E070E07
:1000F000B46E086A085086DF082A006E00509EA879
:10010000FED7AD6E0E0E085CF5E1086A08508ADF76
:10011000082A006E00509EA8FED7AD6E110E085C36
:10012000F5E1086A08508FDF082A006E00509EA88B
:10013000FED7AD6E0E0E085CF5E1086A085093DF3D
:10014000082A006E00509EA8FED7AD6E100E085C07
:10015000F5E19EAAFED7AECF06F006503008F9E2D0
:1001600006503308F6E394948B940C0EBD6EB76A78
:100170000650310A05E0030A09E0010A0DE012D039
:10018000000E0609CA6E0F0ECB6E0CD0000E0609CB
:10019000CA6E3F0ECB6E06D0080E0609CA6E810EDF
:1001A000CB6E00D0C150C00BC16EC080C082C08475
:1001B000C09EC280000E016EC250C30B0110C26E01
:1001C00006509EA8FED7AD6E0D0E9EA8FED7AD6E52
:1001D0000A0E9EA8FED7AD6EC282C2B2FED7C4CFB1
:1001E00007F007C008F0370E096E4ED70D0E9EA817
:0C01F000FED7AD6E07C0BEFFEFD70300C6
:020000040030CA
:0E000000200C1E1E008381000FC00FE00F4079
:00000001FF
;PIC18F4550
