:020000040000FA
:04000000C1EF00F05C
:08000800056ED8CF06F0E0CF31
:1000100007F00001E9CF0DF0EACF08F0E1CF09F0D9
:10002000E2CF0AF0D9CF0BF0DACF0CF0F3CF14F017
:10003000F4CF15F0FACF16F000C00FF001C010F0A9
:1000400002C011F003C012F004C013F09DAA2CEFFF
:1000500000F09EBA80EF00F00FC000F010C001F079
:1000600011C002F012C003F013C004F00E8E0DC0D8
:10007000E9FF08C0EAFF09C0E1FF0AC0E2FF0BC0C8
:10008000D9FF0CC0DAFF14C0F3FF15C0F4FF16C08F
:10009000FAFF055007C0E0FF06C0D8FF1000F2CFFE
:1000A0000EF0F29EF76AB80FF66E000EF722090006
:1000B000F5500EBEF28E12004C6162203261206358
:1000C0006F7572733A3234332D3434340000F2CF0A
:1000D0000EF0F29EF76AE80FF66E000EF7220900A6
:1000E000F5500EBEF28E1200617474656E74652058
:1000F000646520726563657074696F6E0A0D000037
:10010000036A3850180FE96E000E0320EA6E9EAAAB
:10011000FED7AECFEFFF38C03DF0010E38241F0BE5
:10012000386E3950385C02E13DC038F09E9A2CEFB1
:1001300000F0EA6A3C0EE96EEF500DE0060E016E2B
:10014000006A002EFED7012EFBD77B0E006E002E1C
:10015000FED7EF2EF3D72AEF01F03950385CFDE0DF
:10016000036A3950180FE96E000E0320EA6EEFCFD4
:100170003BF0010E39241F0B396E3BC001F030EF0C
:1001800001F0F86AD09E0D8EEA6AE96AB886080E18
:10019000AF6E020EB06EA60EAC6E900EAB6EC1507E
:1001A000C00B0F09C16E070EB46E386A396A3A6A1D
:1001B000C150C00B0F09C16EC2909698C69A949E0A
:1001C00093809392000EC66EC76ED190800ED56E4E
:1001D000CD6A000ECA6E000ECB6E070EB46E925042
:1001E000100E006E002EFED70000B450A19CB56A20
:1001F0009D8AC00EF212D36AD350FE0E9EA8FED77F
:10020000AD6E010E9EA8FED7AD6E3B6A3B5047DF38
:100210003B2A006E00509EA8FED7AD6E140E3B5CCC
:10022000F5E1FE0E9EA8FED7AD6EC00E9EA8FED7CD
:10023000AD6E3B6A3B504BDF3B2A006E00509EA8E0
:10024000FED7AD6E160E3B5CF5E1020E3B6E960ED0
:100250003C6E6FD73B2EFBD73950385C07E07DD71B
:1002600001503B6E9EA8FED7AD6EF6D7010E3A2622
:04027000F3D70300BD
:020000040030CA
:0E0000003FCC3F0E0087A5000FC00FE00F4061
:00000001FF
;PIC18F4550
